{
  "_format": "hh-sol-artifact-1",
  "contractName": "ERC20Mock",
  "sourceName": "contracts/mocks/ERC20Mock.sol",
  "abi": [
    {
      "inputs": [
        {
          "internalType": "uint256",
          "name": "_decimals",
          "type": "uint256"
        }
      ],
      "stateMutability": "nonpayable",
      "type": "constructor"
    },
    {
      "anonymous": false,
      "inputs": [
        {
          "indexed": true,
          "internalType": "address",
          "name": "owner",
          "type": "address"
        },
        {
          "indexed": true,
          "internalType": "address",
          "name": "spender",
          "type": "address"
        },
        {
          "indexed": false,
          "internalType": "uint256",
          "name": "value",
          "type": "uint256"
        }
      ],
      "name": "Approval",
      "type": "event"
    },
    {
      "anonymous": false,
      "inputs": [
        {
          "indexed": true,
          "internalType": "address",
          "name": "from",
          "type": "address"
        },
        {
          "indexed": true,
          "internalType": "address",
          "name": "to",
          "type": "address"
        },
        {
          "indexed": false,
          "internalType": "uint256",
          "name": "value",
          "type": "uint256"
        }
      ],
      "name": "Transfer",
      "type": "event"
    },
    {
      "inputs": [
        {
          "internalType": "address",
          "name": "owner",
          "type": "address"
        },
        {
          "internalType": "address",
          "name": "spender",
          "type": "address"
        }
      ],
      "name": "allowance",
      "outputs": [
        {
          "internalType": "uint256",
          "name": "",
          "type": "uint256"
        }
      ],
      "stateMutability": "view",
      "type": "function"
    },
    {
      "inputs": [
        {
          "internalType": "address",
          "name": "spender",
          "type": "address"
        },
        {
          "internalType": "uint256",
          "name": "amount",
          "type": "uint256"
        }
      ],
      "name": "approve",
      "outputs": [
        {
          "internalType": "bool",
          "name": "",
          "type": "bool"
        }
      ],
      "stateMutability": "nonpayable",
      "type": "function"
    },
    {
      "inputs": [
        {
          "internalType": "address",
          "name": "account",
          "type": "address"
        }
      ],
      "name": "balanceOf",
      "outputs": [
        {
          "internalType": "uint256",
          "name": "",
          "type": "uint256"
        }
      ],
      "stateMutability": "view",
      "type": "function"
    },
    {
      "inputs": [
        {
          "internalType": "uint256",
          "name": "amount",
          "type": "uint256"
        }
      ],
      "name": "burn",
      "outputs": [],
      "stateMutability": "nonpayable",
      "type": "function"
    },
    {
      "inputs": [],
      "name": "decimals",
      "outputs": [
        {
          "internalType": "uint8",
          "name": "",
          "type": "uint8"
        }
      ],
      "stateMutability": "view",
      "type": "function"
    },
    {
      "inputs": [
        {
          "internalType": "address",
          "name": "spender",
          "type": "address"
        },
        {
          "internalType": "uint256",
          "name": "subtractedValue",
          "type": "uint256"
        }
      ],
      "name": "decreaseAllowance",
      "outputs": [
        {
          "internalType": "bool",
          "name": "",
          "type": "bool"
        }
      ],
      "stateMutability": "nonpayable",
      "type": "function"
    },
    {
      "inputs": [
        {
          "internalType": "address",
          "name": "spender",
          "type": "address"
        },
        {
          "internalType": "uint256",
          "name": "addedValue",
          "type": "uint256"
        }
      ],
      "name": "increaseAllowance",
      "outputs": [
        {
          "internalType": "bool",
          "name": "",
          "type": "bool"
        }
      ],
      "stateMutability": "nonpayable",
      "type": "function"
    },
    {
      "inputs": [
        {
          "internalType": "address",
          "name": "to",
          "type": "address"
        },
        {
          "internalType": "uint256",
          "name": "amount",
          "type": "uint256"
        }
      ],
      "name": "mint",
      "outputs": [],
      "stateMutability": "nonpayable",
      "type": "function"
    },
    {
      "inputs": [],
      "name": "name",
      "outputs": [
        {
          "internalType": "string",
          "name": "",
          "type": "string"
        }
      ],
      "stateMutability": "view",
      "type": "function"
    },
    {
      "inputs": [],
      "name": "symbol",
      "outputs": [
        {
          "internalType": "string",
          "name": "",
          "type": "string"
        }
      ],
      "stateMutability": "view",
      "type": "function"
    },
    {
      "inputs": [],
      "name": "totalSupply",
      "outputs": [
        {
          "internalType": "uint256",
          "name": "",
          "type": "uint256"
        }
      ],
      "stateMutability": "view",
      "type": "function"
    },
    {
      "inputs": [
        {
          "internalType": "address",
          "name": "to",
          "type": "address"
        },
        {
          "internalType": "uint256",
          "name": "amount",
          "type": "uint256"
        }
      ],
      "name": "transfer",
      "outputs": [
        {
          "internalType": "bool",
          "name": "",
          "type": "bool"
        }
      ],
      "stateMutability": "nonpayable",
      "type": "function"
    },
    {
      "inputs": [
        {
          "internalType": "address",
          "name": "from",
          "type": "address"
        },
        {
          "internalType": "address",
          "name": "to",
          "type": "address"
        },
        {
          "internalType": "uint256",
          "name": "amount",
          "type": "uint256"
        }
      ],
      "name": "transferFrom",
      "outputs": [
        {
          "internalType": "bool",
          "name": "",
          "type": "bool"
        }
      ],
      "stateMutability": "nonpayable",
      "type": "function"
    }
  ],
  "bytecode": "0x60806040523480156200001157600080fd5b5060405162000f4438038062000f44833981016040819052620000349162000192565b6040518060400160405280600981526020016806d6f636b45524332360bc1b81525060405180604001604052806005815260200164045524332360dc1b815250816003908162000085919062000250565b50600462000094828262000250565b505050620000c03382600a620000ab919062000431565b620000ba90620f424062000446565b620000c7565b5062000476565b6001600160a01b038216620001225760405162461bcd60e51b815260206004820152601f60248201527f45524332303a206d696e7420746f20746865207a65726f206164647265737300604482015260640160405180910390fd5b806002600082825462000136919062000460565b90915550506001600160a01b038216600081815260208181526040808320805486019055518481527fddf252ad1be2c89b69c2b068fc378daa952ba7f163c4a11628f55a4df523b3ef910160405180910390a35050565b505050565b600060208284031215620001a557600080fd5b5051919050565b634e487b7160e01b600052604160045260246000fd5b600181811c90821680620001d757607f821691505b602082108103620001f857634e487b7160e01b600052602260045260246000fd5b50919050565b601f8211156200018d57600081815260208120601f850160051c81016020861015620002275750805b601f850160051c820191505b81811015620002485782815560010162000233565b505050505050565b81516001600160401b038111156200026c576200026c620001ac565b62000284816200027d8454620001c2565b84620001fe565b602080601f831160018114620002bc5760008415620002a35750858301515b600019600386901b1c1916600185901b17855562000248565b600085815260208120601f198616915b82811015620002ed57888601518255948401946001909101908401620002cc565b50858210156200030c5787850151600019600388901b60f8161c191681555b5050505050600190811b01905550565b634e487b7160e01b600052601160045260246000fd5b600181815b80851115620003735781600019048211156200035757620003576200031c565b808516156200036557918102915b93841c939080029062000337565b509250929050565b6000826200038c575060016200042b565b816200039b575060006200042b565b8160018114620003b45760028114620003bf57620003df565b60019150506200042b565b60ff841115620003d357620003d36200031c565b50506001821b6200042b565b5060208310610133831016604e8410600b841016171562000404575081810a6200042b565b62000410838362000332565b80600019048211156200042757620004276200031c565b0290505b92915050565b60006200043f83836200037b565b9392505050565b80820281158282048414176200042b576200042b6200031c565b808201808211156200042b576200042b6200031c565b610abe80620004866000396000f3fe608060405234801561001057600080fd5b50600436106100cf5760003560e01c806340c10f191161008c57806395d89b411161006657806395d89b41146101ad578063a457c2d7146101b5578063a9059cbb146101c8578063dd62ed3e146101db57600080fd5b806340c10f191461015c57806342966c681461017157806370a082311461018457600080fd5b806306fdde03146100d4578063095ea7b3146100f257806318160ddd1461011557806323b872dd14610127578063313ce5671461013a5780633950935114610149575b600080fd5b6100dc6101ee565b6040516100e991906108ef565b60405180910390f35b610105610100366004610959565b610280565b60405190151581526020016100e9565b6002545b6040519081526020016100e9565b610105610135366004610983565b61029a565b604051601281526020016100e9565b610105610157366004610959565b6102be565b61016f61016a366004610959565b6102e0565b005b61016f61017f3660046109bf565b6102ee565b6101196101923660046109d8565b6001600160a01b031660009081526020819052604090205490565b6100dc6102fb565b6101056101c3366004610959565b61030a565b6101056101d6366004610959565b61038a565b6101196101e93660046109fa565b610398565b6060600380546101fd90610a2d565b80601f016020809104026020016040519081016040528092919081815260200182805461022990610a2d565b80156102765780601f1061024b57610100808354040283529160200191610276565b820191906000526020600020905b81548152906001019060200180831161025957829003601f168201915b5050505050905090565b60003361028e8185856103c3565b60019150505b92915050565b6000336102a88582856104e8565b6102b3858585610562565b506001949350505050565b60003361028e8185856102d18383610398565b6102db9190610a67565b6103c3565b6102ea8282610706565b5050565b6102f830826107c5565b50565b6060600480546101fd90610a2d565b600033816103188286610398565b90508381101561037d5760405162461bcd60e51b815260206004820152602560248201527f45524332303a2064656372656173656420616c6c6f77616e63652062656c6f77604482015264207a65726f60d81b60648201526084015b60405180910390fd5b6102b382868684036103c3565b60003361028e818585610562565b6001600160a01b03918216600090815260016020908152604080832093909416825291909152205490565b6001600160a01b0383166104255760405162461bcd60e51b8152602060048201526024808201527f45524332303a20617070726f76652066726f6d20746865207a65726f206164646044820152637265737360e01b6064820152608401610374565b6001600160a01b0382166104865760405162461bcd60e51b815260206004820152602260248201527f45524332303a20617070726f766520746f20746865207a65726f206164647265604482015261737360f01b6064820152608401610374565b6001600160a01b0383811660008181526001602090815260408083209487168084529482529182902085905590518481527f8c5be1e5ebec7d5bd14f71427d1e84f3dd0314c0f7b2291e5b200ac8c7c3b92591015b60405180910390a3505050565b60006104f48484610398565b9050600019811461055c578181101561054f5760405162461bcd60e51b815260206004820152601d60248201527f45524332303a20696e73756666696369656e7420616c6c6f77616e63650000006044820152606401610374565b61055c84848484036103c3565b50505050565b6001600160a01b0383166105c65760405162461bcd60e51b815260206004820152602560248201527f45524332303a207472616e736665722066726f6d20746865207a65726f206164604482015264647265737360d81b6064820152608401610374565b6001600160a01b0382166106285760405162461bcd60e51b815260206004820152602360248201527f45524332303a207472616e7366657220746f20746865207a65726f206164647260448201526265737360e81b6064820152608401610374565b6001600160a01b038316600090815260208190526040902054818110156106a05760405162461bcd60e51b815260206004820152602660248201527f45524332303a207472616e7366657220616d6f756e7420657863656564732062604482015265616c616e636560d01b6064820152608401610374565b6001600160a01b03848116600081815260208181526040808320878703905593871680835291849020805487019055925185815290927fddf252ad1be2c89b69c2b068fc378daa952ba7f163c4a11628f55a4df523b3ef910160405180910390a361055c565b6001600160a01b03821661075c5760405162461bcd60e51b815260206004820152601f60248201527f45524332303a206d696e7420746f20746865207a65726f2061646472657373006044820152606401610374565b806002600082825461076e9190610a67565b90915550506001600160a01b038216600081815260208181526040808320805486019055518481527fddf252ad1be2c89b69c2b068fc378daa952ba7f163c4a11628f55a4df523b3ef910160405180910390a35050565b6001600160a01b0382166108255760405162461bcd60e51b815260206004820152602160248201527f45524332303a206275726e2066726f6d20746865207a65726f206164647265736044820152607360f81b6064820152608401610374565b6001600160a01b038216600090815260208190526040902054818110156108995760405162461bcd60e51b815260206004820152602260248201527f45524332303a206275726e20616d6f756e7420657863656564732062616c616e604482015261636560f01b6064820152608401610374565b6001600160a01b0383166000818152602081815260408083208686039055600280548790039055518581529192917fddf252ad1be2c89b69c2b068fc378daa952ba7f163c4a11628f55a4df523b3ef91016104db565b600060208083528351808285015260005b8181101561091c57858101830151858201604001528201610900565b506000604082860101526040601f19601f8301168501019250505092915050565b80356001600160a01b038116811461095457600080fd5b919050565b6000806040838503121561096c57600080fd5b6109758361093d565b946020939093013593505050565b60008060006060848603121561099857600080fd5b6109a18461093d565b92506109af6020850161093d565b9150604084013590509250925092565b6000602082840312156109d157600080fd5b5035919050565b6000602082840312156109ea57600080fd5b6109f38261093d565b9392505050565b60008060408385031215610a0d57600080fd5b610a168361093d565b9150610a246020840161093d565b90509250929050565b600181811c90821680610a4157607f821691505b602082108103610a6157634e487b7160e01b600052602260045260246000fd5b50919050565b8082018082111561029457634e487b7160e01b600052601160045260246000fdfea2646970667358221220a39a72ef0bf8ddbf69861ff8340df3521d160a6ba16cea8ed480ed1ad923600664736f6c63430008130033",
  "linkReferences": {},
  "deployedLinkReferences": {}
}