{
  "_format": "hh-sol-artifact-1",
  "contractName": "DGNMMarket",
  "sourceName": "contracts/DGNMMarket.sol",
  "abi": [
    {
      "inputs": [
        {
          "internalType": "address",
          "name": "_nftAddress",
          "type": "address"
        }
      ],
      "stateMutability": "nonpayable",
      "type": "constructor"
    },
    {
      "inputs": [],
      "name": "DGNMMarket_AddressZero",
      "type": "error"
    },
    {
      "inputs": [
        {
          "internalType": "uint256",
          "name": "auctionId",
          "type": "uint256"
        }
      ],
      "name": "DGNMMarket_AlreadyHighestBid",
      "type": "error"
    },
    {
      "inputs": [
        {
          "internalType": "address",
          "name": "token",
          "type": "address"
        }
      ],
      "name": "DGNMMarket_AlreadySupported",
      "type": "error"
    },
    {
      "inputs": [
        {
          "internalType": "uint256",
          "name": "auctionId",
          "type": "uint256"
        }
      ],
      "name": "DGNMMarket_AuctionNotOpen",
      "type": "error"
    },
    {
      "inputs": [
        {
          "internalType": "uint256",
          "name": "auctionId",
          "type": "uint256"
        },
        {
          "internalType": "uint256",
          "name": "endTime",
          "type": "uint256"
        }
      ],
      "name": "DGNMMarket_AuctionPeriodNotEnded",
      "type": "error"
    },
    {
      "inputs": [
        {
          "internalType": "uint256",
          "name": "auctionId",
          "type": "uint256"
        }
      ],
      "name": "DGNMMarket_CancelImpossible",
      "type": "error"
    },
    {
      "inputs": [
        {
          "internalType": "uint256",
          "name": "auctionId",
          "type": "uint256"
        }
      ],
      "name": "DGNMMarket_HasNoBid",
      "type": "error"
    },
    {
      "inputs": [],
      "name": "DGNMMarket_InsufficientAmount",
      "type": "error"
    },
    {
      "inputs": [
        {
          "internalType": "uint256",
          "name": "auctionId",
          "type": "uint256"
        }
      ],
      "name": "DGNMMarket_InsufficientBid",
      "type": "error"
    },
    {
      "inputs": [
        {
          "internalType": "uint256",
          "name": "endTime",
          "type": "uint256"
        },
        {
          "internalType": "uint256",
          "name": "startTime",
          "type": "uint256"
        }
      ],
      "name": "DGNMMarket_InvalidAuctionPeriod",
      "type": "error"
    },
    {
      "inputs": [
        {
          "internalType": "uint256",
          "name": "directBuyPrice",
          "type": "uint256"
        }
      ],
      "name": "DGNMMarket_InvalidDirectBuyPrice",
      "type": "error"
    },
    {
      "inputs": [],
      "name": "DGNMMarket_InvalidExpirationTime",
      "type": "error"
    },
    {
      "inputs": [
        {
          "internalType": "uint256",
          "name": "fee",
          "type": "uint256"
        }
      ],
      "name": "DGNMMarket_InvalidFee",
      "type": "error"
    },
    {
      "inputs": [],
      "name": "DGNMMarket_InvalidStartPrice",
      "type": "error"
    },
    {
      "inputs": [
        {
          "internalType": "uint256",
          "name": "auctionId",
          "type": "uint256"
        }
      ],
      "name": "DGNMMarket_IsHighestBidder",
      "type": "error"
    },
    {
      "inputs": [
        {
          "internalType": "uint256",
          "name": "tokenId",
          "type": "uint256"
        }
      ],
      "name": "DGNMMarket_ItemNotApproved",
      "type": "error"
    },
    {
      "inputs": [
        {
          "internalType": "uint256",
          "name": "listingId",
          "type": "uint256"
        }
      ],
      "name": "DGNMMarket_ListingNotActive",
      "type": "error"
    },
    {
      "inputs": [],
      "name": "DGNMMarket_OfferAmountNotApproved",
      "type": "error"
    },
    {
      "inputs": [
        {
          "internalType": "uint256",
          "name": "offerId",
          "type": "uint256"
        },
        {
          "internalType": "uint256",
          "name": "tokenId",
          "type": "uint256"
        }
      ],
      "name": "DGNMMarket_OfferNotActive",
      "type": "error"
    },
    {
      "inputs": [
        {
          "internalType": "uint256",
          "name": "offerId",
          "type": "uint256"
        },
        {
          "internalType": "uint256",
          "name": "tokenId",
          "type": "uint256"
        }
      ],
      "name": "DGNMMarket_OnlyOfferer",
      "type": "error"
    },
    {
      "inputs": [
        {
          "internalType": "uint256",
          "name": "id",
          "type": "uint256"
        }
      ],
      "name": "DGNMMarket_OnlySeller",
      "type": "error"
    },
    {
      "inputs": [
        {
          "internalType": "uint256",
          "name": "tokenId",
          "type": "uint256"
        }
      ],
      "name": "DGNMMarket_OnlyTokenOwner",
      "type": "error"
    },
    {
      "inputs": [],
      "name": "DGNMMarket_TransferFailed",
      "type": "error"
    },
    {
      "inputs": [
        {
          "internalType": "address",
          "name": "token",
          "type": "address"
        }
      ],
      "name": "DGNMMarket_UnsupportedToken",
      "type": "error"
    },
    {
      "anonymous": false,
      "inputs": [
        {
          "indexed": false,
          "internalType": "uint256",
          "name": "auctionId",
          "type": "uint256"
        }
      ],
      "name": "AuctionCanceled",
      "type": "event"
    },
    {
      "anonymous": false,
      "inputs": [
        {
          "indexed": false,
          "internalType": "uint256",
          "name": "auctionId",
          "type": "uint256"
        },
        {
          "indexed": false,
          "internalType": "address",
          "name": "buyer",
          "type": "address"
        }
      ],
      "name": "AuctionDirectBuy",
      "type": "event"
    },
    {
      "anonymous": false,
      "inputs": [
        {
          "indexed": false,
          "internalType": "uint256",
          "name": "auctionId",
          "type": "uint256"
        },
        {
          "indexed": false,
          "internalType": "address",
          "name": "buyer",
          "type": "address"
        }
      ],
      "name": "AuctionEnded",
      "type": "event"
    },
    {
      "anonymous": false,
      "inputs": [
        {
          "indexed": false,
          "internalType": "uint256",
          "name": "auctionId",
          "type": "uint256"
        },
        {
          "indexed": false,
          "internalType": "address",
          "name": "seller",
          "type": "address"
        },
        {
          "indexed": false,
          "internalType": "uint256",
          "name": "tokenId",
          "type": "uint256"
        },
        {
          "indexed": false,
          "internalType": "uint256",
          "name": "startTime",
          "type": "uint256"
        }
      ],
      "name": "AuctionStarted",
      "type": "event"
    },
    {
      "anonymous": false,
      "inputs": [
        {
          "indexed": false,
          "internalType": "uint256",
          "name": "listingId",
          "type": "uint256"
        }
      ],
      "name": "ItemCanceled",
      "type": "event"
    },
    {
      "anonymous": false,
      "inputs": [
        {
          "indexed": false,
          "internalType": "uint256",
          "name": "listingId",
          "type": "uint256"
        },
        {
          "indexed": false,
          "internalType": "address",
          "name": "seller",
          "type": "address"
        },
        {
          "indexed": false,
          "internalType": "uint256",
          "name": "tokenId",
          "type": "uint256"
        }
      ],
      "name": "ItemListed",
      "type": "event"
    },
    {
      "anonymous": false,
      "inputs": [
        {
          "indexed": false,
          "internalType": "uint256",
          "name": "listingId",
          "type": "uint256"
        },
        {
          "indexed": false,
          "internalType": "address",
          "name": "buyer",
          "type": "address"
        }
      ],
      "name": "ItemSold",
      "type": "event"
    },
    {
      "anonymous": false,
      "inputs": [
        {
          "indexed": false,
          "internalType": "uint256",
          "name": "auctionId",
          "type": "uint256"
        },
        {
          "indexed": false,
          "internalType": "address",
          "name": "bidder",
          "type": "address"
        },
        {
          "indexed": false,
          "internalType": "uint256",
          "name": "bidAmount",
          "type": "uint256"
        }
      ],
      "name": "NewBid",
      "type": "event"
    },
    {
      "anonymous": false,
      "inputs": [
        {
          "indexed": false,
          "internalType": "uint256",
          "name": "fee",
          "type": "uint256"
        }
      ],
      "name": "NewFee",
      "type": "event"
    },
    {
      "anonymous": false,
      "inputs": [
        {
          "indexed": false,
          "internalType": "uint256",
          "name": "offerId",
          "type": "uint256"
        },
        {
          "indexed": false,
          "internalType": "uint256",
          "name": "tokenId",
          "type": "uint256"
        },
        {
          "indexed": false,
          "internalType": "address",
          "name": "offerer",
          "type": "address"
        }
      ],
      "name": "NewOffer",
      "type": "event"
    },
    {
      "anonymous": false,
      "inputs": [
        {
          "indexed": false,
          "internalType": "address",
          "name": "token",
          "type": "address"
        }
      ],
      "name": "NewSupportedToken",
      "type": "event"
    },
    {
      "anonymous": false,
      "inputs": [
        {
          "indexed": false,
          "internalType": "uint256",
          "name": "offerId",
          "type": "uint256"
        },
        {
          "indexed": false,
          "internalType": "uint256",
          "name": "tokenId",
          "type": "uint256"
        },
        {
          "indexed": false,
          "internalType": "address",
          "name": "owner",
          "type": "address"
        }
      ],
      "name": "OfferAccepted",
      "type": "event"
    },
    {
      "anonymous": false,
      "inputs": [
        {
          "indexed": false,
          "internalType": "uint256",
          "name": "offerId",
          "type": "uint256"
        },
        {
          "indexed": false,
          "internalType": "uint256",
          "name": "tokenId",
          "type": "uint256"
        }
      ],
      "name": "OfferCanceled",
      "type": "event"
    },
    {
      "anonymous": false,
      "inputs": [
        {
          "indexed": true,
          "internalType": "address",
          "name": "previousOwner",
          "type": "address"
        },
        {
          "indexed": true,
          "internalType": "address",
          "name": "newOwner",
          "type": "address"
        }
      ],
      "name": "OwnershipTransferred",
      "type": "event"
    },
    {
      "anonymous": false,
      "inputs": [
        {
          "indexed": false,
          "internalType": "uint256",
          "name": "tokenId",
          "type": "uint256"
        },
        {
          "indexed": false,
          "internalType": "address",
          "name": "receiver",
          "type": "address"
        },
        {
          "indexed": false,
          "internalType": "uint256",
          "name": "amount",
          "type": "uint256"
        }
      ],
      "name": "RoyaltyPaid",
      "type": "event"
    },
    {
      "inputs": [
        {
          "internalType": "uint256",
          "name": "_tokenId",
          "type": "uint256"
        },
        {
          "internalType": "uint256",
          "name": "_offerId",
          "type": "uint256"
        }
      ],
      "name": "acceptOffer",
      "outputs": [],
      "stateMutability": "nonpayable",
      "type": "function"
    },
    {
      "inputs": [
        {
          "internalType": "address",
          "name": "_token",
          "type": "address"
        }
      ],
      "name": "addSupportedToken",
      "outputs": [],
      "stateMutability": "nonpayable",
      "type": "function"
    },
    {
      "inputs": [
        {
          "internalType": "uint256",
          "name": "_auctionId",
          "type": "uint256"
        },
        {
          "internalType": "uint256",
          "name": "_amount",
          "type": "uint256"
        }
      ],
      "name": "bid",
      "outputs": [],
      "stateMutability": "payable",
      "type": "function"
    },
    {
      "inputs": [
        {
          "internalType": "uint256",
          "name": "_listingId",
          "type": "uint256"
        }
      ],
      "name": "buyItem",
      "outputs": [],
      "stateMutability": "payable",
      "type": "function"
    },
    {
      "inputs": [
        {
          "internalType": "uint256",
          "name": "_auctionId",
          "type": "uint256"
        }
      ],
      "name": "cancelAuction",
      "outputs": [],
      "stateMutability": "nonpayable",
      "type": "function"
    },
    {
      "inputs": [
        {
          "internalType": "uint256",
          "name": "_listingId",
          "type": "uint256"
        }
      ],
      "name": "cancelListing",
      "outputs": [],
      "stateMutability": "nonpayable",
      "type": "function"
    },
    {
      "inputs": [
        {
          "internalType": "uint256",
          "name": "_tokenId",
          "type": "uint256"
        },
        {
          "internalType": "uint256",
          "name": "_offerId",
          "type": "uint256"
        }
      ],
      "name": "cancelOffer",
      "outputs": [],
      "stateMutability": "nonpayable",
      "type": "function"
    },
    {
      "inputs": [
        {
          "internalType": "uint256",
          "name": "_auctionId",
          "type": "uint256"
        }
      ],
      "name": "directBuyAuction",
      "outputs": [],
      "stateMutability": "payable",
      "type": "function"
    },
    {
      "inputs": [
        {
          "internalType": "uint256",
          "name": "_auctionId",
          "type": "uint256"
        }
      ],
      "name": "endAuction",
      "outputs": [],
      "stateMutability": "nonpayable",
      "type": "function"
    },
    {
      "inputs": [],
      "name": "fee",
      "outputs": [
        {
          "internalType": "uint256",
          "name": "",
          "type": "uint256"
        }
      ],
      "stateMutability": "view",
      "type": "function"
    },
    {
      "inputs": [
        {
          "internalType": "uint256",
          "name": "_auctionId",
          "type": "uint256"
        }
      ],
      "name": "getAuctionStatus",
      "outputs": [
        {
          "internalType": "enum IDGNMMarket.AuctionStatus",
          "name": "",
          "type": "uint8"
        }
      ],
      "stateMutability": "view",
      "type": "function"
    },
    {
      "inputs": [],
      "name": "getAuctions",
      "outputs": [
        {
          "components": [
            {
              "internalType": "uint256",
              "name": "tokenId",
              "type": "uint256"
            },
            {
              "internalType": "address",
              "name": "seller",
              "type": "address"
            },
            {
              "internalType": "address",
              "name": "paymentToken",
              "type": "address"
            },
            {
              "internalType": "address",
              "name": "highestBidder",
              "type": "address"
            },
            {
              "internalType": "uint48",
              "name": "startTime",
              "type": "uint48"
            },
            {
              "internalType": "uint48",
              "name": "endTime",
              "type": "uint48"
            },
            {
              "internalType": "uint256",
              "name": "highestBid",
              "type": "uint256"
            },
            {
              "internalType": "uint256",
              "name": "directBuyPrice",
              "type": "uint256"
            },
            {
              "internalType": "uint256",
              "name": "startPrice",
              "type": "uint256"
            },
            {
              "internalType": "enum IDGNMMarket.AuctionStatus",
              "name": "status",
              "type": "uint8"
            }
          ],
          "internalType": "struct IDGNMMarket.Auction[]",
          "name": "",
          "type": "tuple[]"
        }
      ],
      "stateMutability": "view",
      "type": "function"
    },
    {
      "inputs": [],
      "name": "getListings",
      "outputs": [
        {
          "components": [
            {
              "internalType": "uint256",
              "name": "tokenId",
              "type": "uint256"
            },
            {
              "internalType": "address",
              "name": "seller",
              "type": "address"
            },
            {
              "internalType": "address",
              "name": "paymentToken",
              "type": "address"
            },
            {
              "internalType": "uint256",
              "name": "buyPrice",
              "type": "uint256"
            },
            {
              "internalType": "enum IDGNMMarket.ListingStatus",
              "name": "status",
              "type": "uint8"
            }
          ],
          "internalType": "struct IDGNMMarket.Listing[]",
          "name": "",
          "type": "tuple[]"
        }
      ],
      "stateMutability": "view",
      "type": "function"
    },
    {
      "inputs": [
        {
          "internalType": "uint256",
          "name": "tokenId",
          "type": "uint256"
        }
      ],
      "name": "getTokenBuyOffers",
      "outputs": [
        {
          "components": [
            {
              "internalType": "address",
              "name": "offerer",
              "type": "address"
            },
            {
              "internalType": "uint256",
              "name": "price",
              "type": "uint256"
            },
            {
              "internalType": "address",
              "name": "paymentToken",
              "type": "address"
            },
            {
              "internalType": "uint48",
              "name": "expireTime",
              "type": "uint48"
            },
            {
              "internalType": "enum IDGNMMarket.OfferStatus",
              "name": "status",
              "type": "uint8"
            }
          ],
          "internalType": "struct IDGNMMarket.Offer[]",
          "name": "",
          "type": "tuple[]"
        }
      ],
      "stateMutability": "view",
      "type": "function"
    },
    {
      "inputs": [
        {
          "internalType": "uint256",
          "name": "auctionId",
          "type": "uint256"
        },
        {
          "internalType": "address",
          "name": "account",
          "type": "address"
        }
      ],
      "name": "getUserBidAmount",
      "outputs": [
        {
          "internalType": "uint256",
          "name": "",
          "type": "uint256"
        }
      ],
      "stateMutability": "view",
      "type": "function"
    },
    {
      "inputs": [
        {
          "internalType": "uint256",
          "name": "_tokenId",
          "type": "uint256"
        },
        {
          "internalType": "address",
          "name": "_paymentToken",
          "type": "address"
        },
        {
          "internalType": "uint256",
          "name": "_buyPrice",
          "type": "uint256"
        }
      ],
      "name": "listItem",
      "outputs": [
        {
          "internalType": "uint256",
          "name": "listingId",
          "type": "uint256"
        }
      ],
      "stateMutability": "nonpayable",
      "type": "function"
    },
    {
      "inputs": [
        {
          "internalType": "uint256",
          "name": "_tokenId",
          "type": "uint256"
        },
        {
          "internalType": "address",
          "name": "_paymentToken",
          "type": "address"
        },
        {
          "internalType": "uint256",
          "name": "_offerPrice",
          "type": "uint256"
        },
        {
          "internalType": "uint256",
          "name": "_expirationTime",
          "type": "uint256"
        }
      ],
      "name": "makeOffer",
      "outputs": [
        {
          "internalType": "uint256",
          "name": "offerId",
          "type": "uint256"
        }
      ],
      "stateMutability": "payable",
      "type": "function"
    },
    {
      "inputs": [
        {
          "internalType": "address",
          "name": "",
          "type": "address"
        },
        {
          "internalType": "address",
          "name": "",
          "type": "address"
        },
        {
          "internalType": "uint256",
          "name": "",
          "type": "uint256"
        },
        {
          "internalType": "bytes",
          "name": "",
          "type": "bytes"
        }
      ],
      "name": "onERC721Received",
      "outputs": [
        {
          "internalType": "bytes4",
          "name": "",
          "type": "bytes4"
        }
      ],
      "stateMutability": "pure",
      "type": "function"
    },
    {
      "inputs": [],
      "name": "owner",
      "outputs": [
        {
          "internalType": "address",
          "name": "",
          "type": "address"
        }
      ],
      "stateMutability": "view",
      "type": "function"
    },
    {
      "inputs": [],
      "name": "renounceOwnership",
      "outputs": [],
      "stateMutability": "nonpayable",
      "type": "function"
    },
    {
      "inputs": [
        {
          "internalType": "uint256",
          "name": "_fee",
          "type": "uint256"
        }
      ],
      "name": "setFee",
      "outputs": [],
      "stateMutability": "nonpayable",
      "type": "function"
    },
    {
      "inputs": [
        {
          "internalType": "address",
          "name": "_newRecipient",
          "type": "address"
        }
      ],
      "name": "setFeeRecipient",
      "outputs": [],
      "stateMutability": "nonpayable",
      "type": "function"
    },
    {
      "inputs": [
        {
          "internalType": "uint256",
          "name": "_tokenId",
          "type": "uint256"
        },
        {
          "internalType": "address",
          "name": "_paymentToken",
          "type": "address"
        },
        {
          "internalType": "uint256",
          "name": "_directBuyPrice",
          "type": "uint256"
        },
        {
          "internalType": "uint256",
          "name": "_startPrice",
          "type": "uint256"
        },
        {
          "internalType": "uint256",
          "name": "_startTime",
          "type": "uint256"
        },
        {
          "internalType": "uint256",
          "name": "_endTime",
          "type": "uint256"
        }
      ],
      "name": "startAuction",
      "outputs": [
        {
          "internalType": "uint256",
          "name": "auctionId",
          "type": "uint256"
        }
      ],
      "stateMutability": "nonpayable",
      "type": "function"
    },
    {
      "inputs": [
        {
          "internalType": "uint256",
          "name": "",
          "type": "uint256"
        }
      ],
      "name": "supportedERC20tokens",
      "outputs": [
        {
          "internalType": "address",
          "name": "",
          "type": "address"
        }
      ],
      "stateMutability": "view",
      "type": "function"
    },
    {
      "inputs": [
        {
          "internalType": "address",
          "name": "newOwner",
          "type": "address"
        }
      ],
      "name": "transferOwnership",
      "outputs": [],
      "stateMutability": "nonpayable",
      "type": "function"
    },
    {
      "inputs": [
        {
          "internalType": "uint256",
          "name": "_auctionId",
          "type": "uint256"
        }
      ],
      "name": "withdrawBid",
      "outputs": [],
      "stateMutability": "nonpayable",
      "type": "function"
    }
  ],
  "bytecode": "0x60a0604052600a6007553480156200001657600080fd5b5060405162002c5e38038062002c5e8339810160408190526200003991620000e0565b620000443362000090565b6001600160a01b0381166200006c57604051633ef4898960e21b815260040160405180910390fd5b6001600160a01b0316608052600880546001600160a01b0319163317905562000112565b600080546001600160a01b038381166001600160a01b0319831681178455604051919092169283917f8be0079c531659141344cd1fd0a4f28419497f9722a3daafe3b4186f6b6457e09190a35050565b600060208284031215620000f357600080fd5b81516001600160a01b03811681146200010b57600080fd5b9392505050565b608051612aea620001746000396000818161067201528181610d9501528181610f480152818161113d0152818161148e0152818161151a0152818161173301528181611b0201528181611d260152818161200401526122dc0152612aea6000f3fe6080604052600436106101815760003560e01c8063996ff749116100d1578063ddca3f431161008a578063e7fb74c711610064578063e7fb74c714610495578063f1b2d6a3146104a8578063f2fde38b146104ca578063fcd8d39e146104ea57600080fd5b8063ddca3f431461044c578063df7a937b14610462578063e74b981b1461047557600080fd5b8063996ff7491461038a578063ae40ee9f146103b7578063b9a2de3a146103ca578063c69fc6bf146103ea578063d45557cc1461040a578063d7c069191461042a57600080fd5b80636d69fcaf1161013e57806381257bd51161011857806381257bd5146102d55780638da5cb5b146102f557806391dad3071461032757806396b5a7551461036a57600080fd5b80636d69fcaf14610273578063715018a6146102935780637765c52c146102a857600080fd5b80630eaaf4c814610186578063132e9db6146101a8578063150b7a02146101db578063305a67a814610220578063598647f81461024057806369fe0e2d14610253575b600080fd5b34801561019257600080fd5b506101a66101a1366004612581565b61050a565b005b3480156101b457600080fd5b506101c86101c33660046125af565b61063d565b6040519081526020015b60405180910390f35b3480156101e757600080fd5b506102076101f63660046125e7565b630a85bd0160e11b95945050505050565b6040516001600160e01b031990911681526020016101d2565b34801561022c57600080fd5b506101a661023b366004612581565b6107ca565b6101a661024e366004612686565b6108f8565b34801561025f57600080fd5b506101a661026e366004612581565b610b55565b34801561027f57600080fd5b506101a661028e3660046126a8565b610bb7565b34801561029f57600080fd5b506101a6610c9a565b3480156102b457600080fd5b506102c86102c3366004612581565b610cae565b6040516101d291906126f6565b3480156102e157600080fd5b506101a66102f0366004612686565b610cbf565b34801561030157600080fd5b506000546001600160a01b03165b6040516001600160a01b0390911681526020016101d2565b34801561033357600080fd5b506101c8610342366004612704565b60009182526006602090815260408084206001600160a01b0393909316845291905290205490565b34801561037657600080fd5b506101a6610385366004612581565b610e4b565b34801561039657600080fd5b506103aa6103a5366004612581565b611029565b6040516101d29190612734565b6101c86103c53660046127c6565b611111565b3480156103d657600080fd5b506101a66103e5366004612581565b611376565b3480156103f657600080fd5b506101c8610405366004612803565b6115ce565b34801561041657600080fd5b506101a6610425366004612686565b6117ef565b34801561043657600080fd5b5061043f61190f565b6040516101d29190612853565b34801561045857600080fd5b506101c860075481565b6101a6610470366004612581565b611a23565b34801561048157600080fd5b506101a66104903660046126a8565b611bab565b6101a66104a3366004612581565b611bd5565b3480156104b457600080fd5b506104bd611e09565b6040516101d29190612915565b3480156104d657600080fd5b506101a66104e53660046126a8565b611ecd565b3480156104f657600080fd5b5061030f610505366004612581565b611f46565b60006002828154811061051f5761051f612992565b600091825260209091206007600890920201015460ff166004811115610547576105476126cc565b036105a3576002818154811061055f5761055f612992565b60009182526020909120600360089092020101546001600160a01b031633036105a357604051630b89c6fb60e01b8152600481018290526024015b60405180910390fd5b6000818152600660209081526040808320338452909152812054908190036105e157604051633e08c09160e11b81526004810183905260240161059a565b60008281526006602090815260408083203384529091528120556002805461063991908490811061061457610614612992565b60009182526020909120600260089092020101546001600160a01b0316303384611f70565b5050565b600061064883611fa5565b6106528433611ff8565b60405163020604bf60e21b81526004810185905230906001600160a01b037f0000000000000000000000000000000000000000000000000000000000000000169063081812fc90602401602060405180830381865afa1580156106b9573d6000803e3d6000fd5b505050506040513d601f19601f820116820180604052508101906106dd91906129a8565b6001600160a01b031614610707576040516307ab963160e41b81526004810185905260240161059a565b506001805480820180835560008381529192908390811061072a5761072a612992565b600091825260209182902060059190910201868155600181018054336001600160a01b031991821681179092556002830180549091166001600160a01b0389161790556003820186905560048201805460ff191690556040805186815293840191909152828101889052519092507fc93edc6ee14cd6c0c2842099adfa8953b237dbdad304ba28e96dce8a7f2a828c9181900360600190a1509392505050565b600181815481106107dd576107dd612992565b60009182526020909120600590910201600101546001600160a01b0316331461081c57604051630819d2fd60e11b81526004810182905260240161059a565b60006001828154811061083157610831612992565b600091825260209091206004600590920201015460ff166002811115610859576108596126cc565b1461087a5760405163701df8c360e01b81526004810182905260240161059a565b60026001828154811061088f5761088f612992565b60009182526020909120600460059092020101805460ff191660018360028111156108bc576108bc6126cc565b02179055506040518181527fc488cd4b714d7cba0f629146d7651a71b310fdf6f2b70ed73bde9d78d46dbabe906020015b60405180910390a150565b60006002838154811061090d5761090d612992565b6000918252602082206008909102019150610927846120bb565b6004811115610938576109386126cc565b1461095957604051631ea1031b60e11b81526004810184905260240161059a565b60038101546001600160a01b0316330361098957604051635a24a39760e11b81526004810184905260240161059a565b60028101546001600160a01b0316806109a0573492505b600084815260066020908152604080832033845290915290205460038301546001600160a01b031615610a025760048301546109dc85836129db565b116109fd5760405163056694b360e31b81526004810186905260240161059a565b610a2a565b8260060154841015610a2a5760405163056694b360e31b81526004810186905260240161059a565b6001600160a01b03821615610aae576040516323b872dd60e01b81526001600160a01b038316906323b872dd90610a69903390309089906004016129ee565b6020604051808303816000875af1158015610a88573d6000803e3d6000fd5b505050506040513d601f19601f82011682018060405250810190610aac9190612a12565b505b610ab884826129db565b6000868152600660209081526040808320338085529252909120919091556003840180546001600160a01b0319169091179055610af584826129db565b60048401557f558a0d5d5468d74b0db24c74eb348b42271c2ebb4c9e953ced38aaed95fa43618533610b2787856129db565b604080519384526001600160a01b039092166020840152908201526060015b60405180910390a15050505050565b610b5d612188565b600a811115610b825760405163caac4d6960e01b81526004810182905260240161059a565b60078190556040518181527f63fe946ed58429ac3c5e64d4356ff92c26d7fa1e73586515df8ba9f059ab54a5906020016108ed565b610bbf612188565b6001600160a01b03811660009081526004602052604090205460ff1615610c0457604051631174d51360e21b81526001600160a01b038216600482015260240161059a565b6001600160a01b0381166000818152600460209081526040808320805460ff191660019081179091556003805491820181559093527fc2575a0e9e593c00f959f8c92f12db2869c3395a3b0502d05e2516446f71f85b90920180546001600160a01b0319168417905590519182527f674133fffafa5256a29e9cc4c4035ada22ef8ece1fbae89d9b2cf2709c3bdcd791016108ed565b610ca2612188565b610cac60006121e2565b565b6000610cb9826120bb565b92915050565b6000828152600560205260408120805483908110610cdf57610cdf612992565b90600052602060002090600302019050610cf98333611ff8565b6000610d058484612232565b6001811115610d1657610d166126cc565b14610d3e576040516373acce7360e11b8152600481018390526024810184905260440161059a565b805460028201546001830154610d6792869233926001600160a01b0392831692909116906122b2565b60028101805460ff60d01b1916600160d01b1790558054604051632142170760e11b81526001600160a01b037f00000000000000000000000000000000000000000000000000000000000000008116926342842e0e92610dcf923392169088906004016129ee565b600060405180830381600087803b158015610de957600080fd5b505af1158015610dfd573d6000803e3d6000fd5b5050604080518581526020810187905233918101919091527fcb229072cbcd1d5410a56504f86a872c0eac1578c7eb4463ec190b52d3b669e2925060600190505b60405180910390a1505050565b60028181548110610e5e57610e5e612992565b60009182526020909120600890910201600101546001600160a01b03163314610e9d57604051630819d2fd60e11b81526004810182905260240161059a565b6000610ea8826120bb565b90506000816004811115610ebe57610ebe6126cc565b14158015610ede57506001816004811115610edb57610edb6126cc565b14155b15610eff57604051639b3c2f4360e01b81526004810183905260240161059a565b600460028381548110610f1457610f14612992565b60009182526020909120600760089092020101805460ff19166001836004811115610f4157610f416126cc565b02179055507f00000000000000000000000000000000000000000000000000000000000000006001600160a01b03166342842e0e303360028681548110610f8a57610f8a612992565b9060005260206000209060080201600001546040518463ffffffff1660e01b8152600401610fba939291906129ee565b600060405180830381600087803b158015610fd457600080fd5b505af1158015610fe8573d6000803e3d6000fd5b505050507f28601d865dccc9f113e15a7185c1b38c085d598c71250d3337916a428536d7718260405161101d91815260200190565b60405180910390a15050565b606060056000838152602001908152602001600020805480602002602001604051908101604052809291908181526020016000905b828210156111065760008481526020908190206040805160a0810182526003860290920180546001600160a01b03908116845260018083015495850195909552600282015490811692840192909252600160a01b820465ffffffffffff16606084015291926080840191600160d01b900460ff16908111156110e2576110e26126cc565b60018111156110f3576110f36126cc565b815250508152602001906001019061105e565b505050509050919050565b600061111c84611fa5565b6040516331a9108f60e11b8152600481018690526000906001600160a01b037f00000000000000000000000000000000000000000000000000000000000000001690636352211e90602401602060405180830381865afa158015611184573d6000803e3d6000fd5b505050506040513d601f19601f820116820180604052508101906111a891906129a8565b6001600160a01b0316036111bb57600080fd5b4282116111db576040516326cfc02d60e11b815260040160405180910390fd5b6001600160a01b03841661120e578234146112095760405163d0c32f0560e01b815260040160405180910390fd5b61129d565b604051636eb1769f60e11b815233600482015230602482015283906001600160a01b0386169063dd62ed3e90604401602060405180830381865afa15801561125a573d6000803e3d6000fd5b505050506040513d601f19601f8201168201806040525081019061127e9190612a34565b101561129d57604051632f07452d60e01b815260040160405180910390fd5b50600084815260056020526040812080546001810180835590929190839081106112c9576112c9612992565b6000918252602091829020600391909102018054336001600160a01b0319909116811782556002820180546001840189905560ff60d01b196001600160a01b038b166001600160d01b031990921691909117600160a01b65ffffffffffff8a160217169055604080518681529384018a905283015291507fefda68dc90a0bc6f999b14e14c27c803c35cffe140e95bee2f13bae025877ad09060600160405180910390a150949350505050565b60006002828154811061138b5761138b612992565b60009182526020909120600890910201905060026113a8836120bb565b60048111156113b9576113b96126cc565b1415806113df57506000600782015460ff1660048111156113dc576113dc6126cc565b14155b1561141a57600381015460405163a220c8db60e01b815260048101849052600160d01b90910465ffffffffffff16602482015260440161059a565b805460078201805460ff1916600217905560038201546000906001600160a01b0316156114fe575060038201546001830154600284015460048501546001600160a01b0393841693611477938693908216923092909116906122b2565b604051632142170760e11b81526001600160a01b037f000000000000000000000000000000000000000000000000000000000000000016906342842e0e906114c7903090859087906004016129ee565b600060405180830381600087803b1580156114e157600080fd5b505af11580156114f5573d6000803e3d6000fd5b50505050611587565b6001830154604051632142170760e11b81526001600160a01b037f00000000000000000000000000000000000000000000000000000000000000008116926342842e0e92611554923092169087906004016129ee565b600060405180830381600087803b15801561156e57600080fd5b505af1158015611582573d6000803e3d6000fd5b505050505b604080518581526001600160a01b03831660208201527fc07789fac136048b605fef8e227ab89b2e33d8afc9ab4817d374197cd81443d6910160405180910390a150505050565b60006115d986611fa5565b6115e38733611ff8565b4283106115f057826115f2565b425b65ffffffffffff1692508282116116265760405163d74d34f560e01b8152600481018390526024810184905260440161059a565b836000036116475760405163152310ef60e11b815260040160405180910390fd5b83851161166a57604051633677da3160e21b81526004810186905260240161059a565b50600280546001810180835560008381529192908390811061168e5761168e612992565b600091825260209091206008909102018881556001810180546001600160a01b0319908116339081179092556002830180546001600160a01b038c811691909316179055600583018990556006830188905560038301805465ffffffffffff888116600160d01b026001600160d01b03918b16600160a01b02919091169184169190911717905560078301805460ff19169055604051632142170760e11b81529293507f000000000000000000000000000000000000000000000000000000000000000016916342842e0e9161176a9130908d906004016129ee565b600060405180830381600087803b15801561178457600080fd5b505af1158015611798573d6000803e3d6000fd5b5050604080518581523360208201529081018b9052606081018790527fbf6dc7bdf2f23af5a506fe03ee1221f47d023a2227fbc949c6b812ae44534e6d9250608001905060405180910390a1509695505050505050565b600082815260056020526040812080548390811061180f5761180f612992565b6000918252602090912060039091020180549091506001600160a01b031633146118565760405163019b347d60e41b8152600481018390526024810184905260440161059a565b60006118628484612232565b6001811115611873576118736126cc565b1461189b576040516373acce7360e11b8152600481018390526024810184905260440161059a565b600281018054600160d01b60ff60d01b198216179091556001600160a01b03166118d957805460018201546118d9916001600160a01b031690612419565b60408051838152602081018590527fc3631089d86cf1fe0600bb8be145021dc1f4dbf1053ce815836f092d69cd9bdc9101610e3e565b60606002805480602002602001604051908101604052809291908181526020016000905b82821015611a1a5760008481526020908190206040805161014081018252600886029092018054835260018101546001600160a01b039081169484019490945260028101548416918301919091526003810154928316606083015265ffffffffffff600160a01b840481166080840152600160d01b90930490921660a082015260048083015460c0830152600583015460e08301526006830154610100830152600783015491929161012084019160ff909116908111156119f6576119f66126cc565b6004811115611a0757611a076126cc565b8152505081526020019060010190611933565b50505050905090565b600060028281548110611a3857611a38612992565b6000918252602082206008909102019150611a52836120bb565b6004811115611a6357611a636126cc565b14611a8457604051631ea1031b60e11b81526004810183905260240161059a565b8054600282015460058301546001600160a01b039091169081158015611aaa5750803414155b15611ac85760405163d0c32f0560e01b815260040160405180910390fd5b6001840154611ae49084906001600160a01b03163385856122b2565b60078401805460ff19166003179055604051632142170760e11b81527f00000000000000000000000000000000000000000000000000000000000000006001600160a01b0316906342842e0e90611b43903090339088906004016129ee565b600060405180830381600087803b158015611b5d57600080fd5b505af1158015611b71573d6000803e3d6000fd5b5050604080518881523360208201527fe5cec6200009b45d3289b1846e63800084e6cead28e6936e6914934d50e6734f9350019050610b46565b611bb3612188565b600880546001600160a01b0319166001600160a01b0392909216919091179055565b600060018281548110611bea57611bea612992565b60009182526020918290206040805160a08101825260059093029091018054835260018101546001600160a01b03908116948401949094526002808201549094169183019190915260038101546060830152600481015491929091608084019160ff90911690811115611c5f57611c5f6126cc565b6002811115611c7057611c706126cc565b9052509050600081608001516002811115611c8d57611c8d6126cc565b14611cae5760405163701df8c360e01b81526004810183905260240161059a565b60408101516001600160a01b0316158015611ccd575080606001513414155b15611ceb5760405163d0c32f0560e01b815260040160405180910390fd5b611d088160000151826020015133846040015185606001516122b2565b60208101518151604051632142170760e11b81526001600160a01b037f000000000000000000000000000000000000000000000000000000000000000016926342842e0e92611d5c923391906004016129ee565b600060405180830381600087803b158015611d7657600080fd5b505af1158015611d8a573d6000803e3d6000fd5b505050506001808381548110611da257611da2612992565b60009182526020909120600460059092020101805460ff19166001836002811115611dcf57611dcf6126cc565b0217905550604080518381523360208201527f7de4035ced290be6d7724645d43bad448b5d8cc76743ff4da172c2d8e1caa0f5910161101d565b60606001805480602002602001604051908101604052809291908181526020016000905b82821015611a1a5760008481526020908190206040805160a081018252600586029092018054835260018101546001600160a01b03908116948401949094526002808201549094169183019190915260038101546060830152600481015491929091608084019160ff90911690811115611ea957611ea96126cc565b6002811115611eba57611eba6126cc565b8152505081526020019060010190611e2d565b611ed5612188565b6001600160a01b038116611f3a5760405162461bcd60e51b815260206004820152602660248201527f4f776e61626c653a206e6577206f776e657220697320746865207a65726f206160448201526564647265737360d01b606482015260840161059a565b611f43816121e2565b50565b60038181548110611f5657600080fd5b6000918252602090912001546001600160a01b0316905081565b8015611f9f576001600160a01b038416611f9357611f8e8282612419565b611f9f565b611f9f8484848461247e565b50505050565b6001600160a01b03811615611f43576001600160a01b03811660009081526004602052604090205460ff16611f435760405163ddb776fb60e01b81526001600160a01b038216600482015260240161059a565b806001600160a01b03167f00000000000000000000000000000000000000000000000000000000000000006001600160a01b0316636352211e846040518263ffffffff1660e01b815260040161205091815260200190565b602060405180830381865afa15801561206d573d6000803e3d6000fd5b505050506040513d601f19601f8201168201806040525081019061209191906129a8565b6001600160a01b03161461063957604051636bff177560e01b81526004810183905260240161059a565b600080600283815481106120d1576120d1612992565b60009182526020909120600890910201600781015490915060ff16426004826004811115612101576121016126cc565b148061211e5750600382600481111561211c5761211c6126cc565b145b1561212b57509392505050565b600383015465ffffffffffff808316600160a01b90920416111561215457506001949350505050565b600383015465ffffffffffff600160d01b90910481169082161161217d57506000949350505050565b506002949350505050565b6000546001600160a01b03163314610cac5760405162461bcd60e51b815260206004820181905260248201527f4f776e61626c653a2063616c6c6572206973206e6f7420746865206f776e6572604482015260640161059a565b600080546001600160a01b038381166001600160a01b0319831681178455604051919092169283917f8be0079c531659141344cd1fd0a4f28419497f9722a3daafe3b4186f6b6457e09190a35050565b600082815260056020526040812080548291908490811061225557612255612992565b906000526020600020906003020190504265ffffffffffff168160020160149054906101000a900465ffffffffffff1665ffffffffffff16101561229d576001915050610cb9565b60020154600160d01b900460ff169050610cb9565b60405163152a902d60e11b8152600481018690526024810182905260009081906001600160a01b037f00000000000000000000000000000000000000000000000000000000000000001690632a55205a906044016040805180830381865afa158015612322573d6000803e3d6000fd5b505050506040513d601f19601f820116820180604052508101906123469190612a4d565b9150915060006103e86007548561235d9190612a7b565b6123679190612a92565b60085490915061238490869088906001600160a01b031684611f70565b8084036001600160a01b03888116908516148015906123a257508215155b15612402576123b386888686611f70565b604080518a81526001600160a01b038616602082015290810184905290839003907ff670029fc6f5302baba881b4ae845d1453acdf752b4c19ed81fe0fa6a686409b9060600160405180910390a15b61240e86888a84611f70565b505050505050505050565b6000826001600160a01b03168260405160006040518083038185875af1925050503d8060008114612466576040519150601f19603f3d011682016040523d82523d6000602084013e61246b565b606091505b505090508061247957600080fd5b505050565b306001600160a01b038416036125075760405163a9059cbb60e01b81526001600160a01b0383811660048301526024820183905285169063a9059cbb906044016020604051808303816000875af11580156124dd573d6000803e3d6000fd5b505050506040513d601f19601f820116820180604052508101906125019190612a12565b50611f9f565b6040516323b872dd60e01b81526001600160a01b038516906323b872dd90612537908690869086906004016129ee565b6020604051808303816000875af1158015612556573d6000803e3d6000fd5b505050506040513d601f19601f8201168201806040525081019061257a9190612a12565b5050505050565b60006020828403121561259357600080fd5b5035919050565b6001600160a01b0381168114611f4357600080fd5b6000806000606084860312156125c457600080fd5b8335925060208401356125d68161259a565b929592945050506040919091013590565b6000806000806000608086880312156125ff57600080fd5b853561260a8161259a565b9450602086013561261a8161259a565b935060408601359250606086013567ffffffffffffffff8082111561263e57600080fd5b818801915088601f83011261265257600080fd5b81358181111561266157600080fd5b89602082850101111561267357600080fd5b9699959850939650602001949392505050565b6000806040838503121561269957600080fd5b50508035926020909101359150565b6000602082840312156126ba57600080fd5b81356126c58161259a565b9392505050565b634e487b7160e01b600052602160045260246000fd5b600581106126f2576126f26126cc565b9052565b60208101610cb982846126e2565b6000806040838503121561271757600080fd5b8235915060208301356127298161259a565b809150509250929050565b602080825282518282018190526000919060409081850190868401855b828110156127b957815180516001600160a01b039081168652878201518887015286820151168686015260608082015165ffffffffffff169086015260809081015190600282106127a4576127a46126cc565b85015260a09093019290850190600101612751565b5091979650505050505050565b600080600080608085870312156127dc57600080fd5b8435935060208501356127ee8161259a565b93969395505050506040820135916060013590565b60008060008060008060c0878903121561281c57600080fd5b86359550602087013561282e8161259a565b95989597505050506040840135936060810135936080820135935060a0909101359150565b602080825282518282018190526000919060409081850190868401855b828110156127b957815180518552868101516001600160a01b0390811688870152868201518116878701526060808301519091169086015260808082015165ffffffffffff9081169187019190915260a0808301519091169086015260c0808201519086015260e08082015190860152610100808201519086015261012090810151906128ff818701836126e2565b5050610140939093019290850190600101612870565b602080825282518282018190526000919060409081850190868401855b828110156127b957815180518552868101516001600160a01b039081168887015286820151168686015260608082015190860152608090810151906003821061297d5761297d6126cc565b85015260a09093019290850190600101612932565b634e487b7160e01b600052603260045260246000fd5b6000602082840312156129ba57600080fd5b81516126c58161259a565b634e487b7160e01b600052601160045260246000fd5b80820180821115610cb957610cb96129c5565b6001600160a01b039384168152919092166020820152604081019190915260600190565b600060208284031215612a2457600080fd5b815180151581146126c557600080fd5b600060208284031215612a4657600080fd5b5051919050565b60008060408385031215612a6057600080fd5b8251612a6b8161259a565b6020939093015192949293505050565b8082028115828204841417610cb957610cb96129c5565b600082612aaf57634e487b7160e01b600052601260045260246000fd5b50049056fea26469706673582212205deeee46d27aea2d4f2b24c201cd770722442e34e50772a578750075860d693d64736f6c63430008130033",
  "linkReferences": {},
  "deployedLinkReferences": {}
}