{
  "_format": "hh-sol-artifact-1",
  "contractName": "DGNMMarket",
  "sourceName": "contracts/DGNMMarket.sol",
  "abi": [
    {
      "inputs": [
        {
          "internalType": "address",
          "name": "_nftAddress",
          "type": "address"
        }
      ],
      "stateMutability": "nonpayable",
      "type": "constructor"
    },
    {
      "inputs": [],
      "name": "DGNMMarket_AddressZero",
      "type": "error"
    },
    {
      "inputs": [
        {
          "internalType": "uint256",
          "name": "auctionId",
          "type": "uint256"
        }
      ],
      "name": "DGNMMarket_AlreadyHighestBid",
      "type": "error"
    },
    {
      "inputs": [
        {
          "internalType": "address",
          "name": "token",
          "type": "address"
        }
      ],
      "name": "DGNMMarket_AlreadySupported",
      "type": "error"
    },
    {
      "inputs": [
        {
          "internalType": "uint256",
          "name": "auctionId",
          "type": "uint256"
        }
      ],
      "name": "DGNMMarket_AuctionNotOpen",
      "type": "error"
    },
    {
      "inputs": [
        {
          "internalType": "uint256",
          "name": "auctionId",
          "type": "uint256"
        },
        {
          "internalType": "uint256",
          "name": "endTime",
          "type": "uint256"
        }
      ],
      "name": "DGNMMarket_AuctionPeriodNotEnded",
      "type": "error"
    },
    {
      "inputs": [
        {
          "internalType": "uint256",
          "name": "auctionId",
          "type": "uint256"
        }
      ],
      "name": "DGNMMarket_CancelImpossible",
      "type": "error"
    },
    {
      "inputs": [
        {
          "internalType": "uint256",
          "name": "auctionId",
          "type": "uint256"
        }
      ],
      "name": "DGNMMarket_HasNoBid",
      "type": "error"
    },
    {
      "inputs": [],
      "name": "DGNMMarket_InsufficientAmount",
      "type": "error"
    },
    {
      "inputs": [
        {
          "internalType": "uint256",
          "name": "auctionId",
          "type": "uint256"
        }
      ],
      "name": "DGNMMarket_InsufficientBid",
      "type": "error"
    },
    {
      "inputs": [
        {
          "internalType": "uint256",
          "name": "endTime",
          "type": "uint256"
        },
        {
          "internalType": "uint256",
          "name": "startTime",
          "type": "uint256"
        }
      ],
      "name": "DGNMMarket_InvalidAuctionPeriod",
      "type": "error"
    },
    {
      "inputs": [
        {
          "internalType": "uint256",
          "name": "directBuyPrice",
          "type": "uint256"
        }
      ],
      "name": "DGNMMarket_InvalidDirectBuyPrice",
      "type": "error"
    },
    {
      "inputs": [],
      "name": "DGNMMarket_InvalidExpirationTime",
      "type": "error"
    },
    {
      "inputs": [
        {
          "internalType": "uint256",
          "name": "fee",
          "type": "uint256"
        }
      ],
      "name": "DGNMMarket_InvalidFee",
      "type": "error"
    },
    {
      "inputs": [],
      "name": "DGNMMarket_InvalidStartPrice",
      "type": "error"
    },
    {
      "inputs": [
        {
          "internalType": "uint256",
          "name": "auctionId",
          "type": "uint256"
        }
      ],
      "name": "DGNMMarket_IsHighestBidder",
      "type": "error"
    },
    {
      "inputs": [
        {
          "internalType": "uint256",
          "name": "tokenId",
          "type": "uint256"
        }
      ],
      "name": "DGNMMarket_ItemNotApproved",
      "type": "error"
    },
    {
      "inputs": [
        {
          "internalType": "uint256",
          "name": "listingId",
          "type": "uint256"
        }
      ],
      "name": "DGNMMarket_ListingNotActive",
      "type": "error"
    },
    {
      "inputs": [],
      "name": "DGNMMarket_OfferAmountNotApproved",
      "type": "error"
    },
    {
      "inputs": [
        {
          "internalType": "uint256",
          "name": "offerId",
          "type": "uint256"
        },
        {
          "internalType": "uint256",
          "name": "tokenId",
          "type": "uint256"
        }
      ],
      "name": "DGNMMarket_OfferNotActive",
      "type": "error"
    },
    {
      "inputs": [
        {
          "internalType": "uint256",
          "name": "offerId",
          "type": "uint256"
        },
        {
          "internalType": "uint256",
          "name": "tokenId",
          "type": "uint256"
        }
      ],
      "name": "DGNMMarket_OnlyOfferer",
      "type": "error"
    },
    {
      "inputs": [
        {
          "internalType": "uint256",
          "name": "id",
          "type": "uint256"
        }
      ],
      "name": "DGNMMarket_OnlySeller",
      "type": "error"
    },
    {
      "inputs": [
        {
          "internalType": "uint256",
          "name": "tokenId",
          "type": "uint256"
        }
      ],
      "name": "DGNMMarket_OnlyTokenOwner",
      "type": "error"
    },
    {
      "inputs": [],
      "name": "DGNMMarket_TransferFailed",
      "type": "error"
    },
    {
      "inputs": [
        {
          "internalType": "address",
          "name": "token",
          "type": "address"
        }
      ],
      "name": "DGNMMarket_UnsupportedToken",
      "type": "error"
    },
    {
      "anonymous": false,
      "inputs": [
        {
          "indexed": false,
          "internalType": "uint256",
          "name": "auctionId",
          "type": "uint256"
        }
      ],
      "name": "AuctionCanceled",
      "type": "event"
    },
    {
      "anonymous": false,
      "inputs": [
        {
          "indexed": false,
          "internalType": "uint256",
          "name": "auctionId",
          "type": "uint256"
        },
        {
          "indexed": false,
          "internalType": "address",
          "name": "buyer",
          "type": "address"
        }
      ],
      "name": "AuctionDirectBuy",
      "type": "event"
    },
    {
      "anonymous": false,
      "inputs": [
        {
          "indexed": false,
          "internalType": "uint256",
          "name": "auctionId",
          "type": "uint256"
        },
        {
          "indexed": false,
          "internalType": "address",
          "name": "buyer",
          "type": "address"
        }
      ],
      "name": "AuctionEnded",
      "type": "event"
    },
    {
      "anonymous": false,
      "inputs": [
        {
          "indexed": false,
          "internalType": "uint256",
          "name": "auctionId",
          "type": "uint256"
        },
        {
          "indexed": false,
          "internalType": "address",
          "name": "seller",
          "type": "address"
        },
        {
          "indexed": false,
          "internalType": "uint256",
          "name": "tokenId",
          "type": "uint256"
        },
        {
          "indexed": false,
          "internalType": "uint256",
          "name": "startTime",
          "type": "uint256"
        }
      ],
      "name": "AuctionStarted",
      "type": "event"
    },
    {
      "anonymous": false,
      "inputs": [
        {
          "indexed": false,
          "internalType": "uint256",
          "name": "listingId",
          "type": "uint256"
        }
      ],
      "name": "ItemCanceled",
      "type": "event"
    },
    {
      "anonymous": false,
      "inputs": [
        {
          "indexed": false,
          "internalType": "uint256",
          "name": "listingId",
          "type": "uint256"
        },
        {
          "indexed": false,
          "internalType": "address",
          "name": "seller",
          "type": "address"
        },
        {
          "indexed": false,
          "internalType": "uint256",
          "name": "tokenId",
          "type": "uint256"
        }
      ],
      "name": "ItemListed",
      "type": "event"
    },
    {
      "anonymous": false,
      "inputs": [
        {
          "indexed": false,
          "internalType": "uint256",
          "name": "listingId",
          "type": "uint256"
        },
        {
          "indexed": false,
          "internalType": "address",
          "name": "buyer",
          "type": "address"
        }
      ],
      "name": "ItemSold",
      "type": "event"
    },
    {
      "anonymous": false,
      "inputs": [
        {
          "indexed": false,
          "internalType": "uint256",
          "name": "auctionId",
          "type": "uint256"
        },
        {
          "indexed": false,
          "internalType": "address",
          "name": "bidder",
          "type": "address"
        },
        {
          "indexed": false,
          "internalType": "uint256",
          "name": "bidAmount",
          "type": "uint256"
        }
      ],
      "name": "NewBid",
      "type": "event"
    },
    {
      "anonymous": false,
      "inputs": [
        {
          "indexed": false,
          "internalType": "uint256",
          "name": "fee",
          "type": "uint256"
        }
      ],
      "name": "NewFee",
      "type": "event"
    },
    {
      "anonymous": false,
      "inputs": [
        {
          "indexed": false,
          "internalType": "uint256",
          "name": "offerId",
          "type": "uint256"
        },
        {
          "indexed": false,
          "internalType": "uint256",
          "name": "tokenId",
          "type": "uint256"
        },
        {
          "indexed": false,
          "internalType": "address",
          "name": "offerer",
          "type": "address"
        }
      ],
      "name": "NewOffer",
      "type": "event"
    },
    {
      "anonymous": false,
      "inputs": [
        {
          "indexed": false,
          "internalType": "address",
          "name": "token",
          "type": "address"
        }
      ],
      "name": "NewSupportedToken",
      "type": "event"
    },
    {
      "anonymous": false,
      "inputs": [
        {
          "indexed": false,
          "internalType": "uint256",
          "name": "offerId",
          "type": "uint256"
        },
        {
          "indexed": false,
          "internalType": "uint256",
          "name": "tokenId",
          "type": "uint256"
        },
        {
          "indexed": false,
          "internalType": "address",
          "name": "owner",
          "type": "address"
        }
      ],
      "name": "OfferAccepted",
      "type": "event"
    },
    {
      "anonymous": false,
      "inputs": [
        {
          "indexed": false,
          "internalType": "uint256",
          "name": "offerId",
          "type": "uint256"
        },
        {
          "indexed": false,
          "internalType": "uint256",
          "name": "tokenId",
          "type": "uint256"
        }
      ],
      "name": "OfferCanceled",
      "type": "event"
    },
    {
      "anonymous": false,
      "inputs": [
        {
          "indexed": true,
          "internalType": "address",
          "name": "previousOwner",
          "type": "address"
        },
        {
          "indexed": true,
          "internalType": "address",
          "name": "newOwner",
          "type": "address"
        }
      ],
      "name": "OwnershipTransferred",
      "type": "event"
    },
    {
      "anonymous": false,
      "inputs": [
        {
          "indexed": false,
          "internalType": "uint256",
          "name": "tokenId",
          "type": "uint256"
        },
        {
          "indexed": false,
          "internalType": "address",
          "name": "receiver",
          "type": "address"
        },
        {
          "indexed": false,
          "internalType": "uint256",
          "name": "amount",
          "type": "uint256"
        }
      ],
      "name": "RoyaltyPaid",
      "type": "event"
    },
    {
      "inputs": [
        {
          "internalType": "uint256",
          "name": "_tokenId",
          "type": "uint256"
        },
        {
          "internalType": "uint256",
          "name": "_offerId",
          "type": "uint256"
        }
      ],
      "name": "acceptOffer",
      "outputs": [],
      "stateMutability": "nonpayable",
      "type": "function"
    },
    {
      "inputs": [
        {
          "internalType": "address",
          "name": "_token",
          "type": "address"
        }
      ],
      "name": "addSupportedToken",
      "outputs": [],
      "stateMutability": "nonpayable",
      "type": "function"
    },
    {
      "inputs": [
        {
          "internalType": "uint256",
          "name": "_auctionId",
          "type": "uint256"
        },
        {
          "internalType": "uint256",
          "name": "_amount",
          "type": "uint256"
        }
      ],
      "name": "bid",
      "outputs": [],
      "stateMutability": "payable",
      "type": "function"
    },
    {
      "inputs": [
        {
          "internalType": "uint256",
          "name": "_listingId",
          "type": "uint256"
        }
      ],
      "name": "buyItem",
      "outputs": [],
      "stateMutability": "payable",
      "type": "function"
    },
    {
      "inputs": [
        {
          "internalType": "uint256",
          "name": "_auctionId",
          "type": "uint256"
        }
      ],
      "name": "cancelAuction",
      "outputs": [],
      "stateMutability": "nonpayable",
      "type": "function"
    },
    {
      "inputs": [
        {
          "internalType": "uint256",
          "name": "_listingId",
          "type": "uint256"
        }
      ],
      "name": "cancelListing",
      "outputs": [],
      "stateMutability": "nonpayable",
      "type": "function"
    },
    {
      "inputs": [
        {
          "internalType": "uint256",
          "name": "_tokenId",
          "type": "uint256"
        },
        {
          "internalType": "uint256",
          "name": "_offerId",
          "type": "uint256"
        }
      ],
      "name": "cancelOffer",
      "outputs": [],
      "stateMutability": "nonpayable",
      "type": "function"
    },
    {
      "inputs": [
        {
          "internalType": "uint256",
          "name": "_auctionId",
          "type": "uint256"
        }
      ],
      "name": "directBuyAuction",
      "outputs": [],
      "stateMutability": "payable",
      "type": "function"
    },
    {
      "inputs": [
        {
          "internalType": "uint256",
          "name": "_auctionId",
          "type": "uint256"
        }
      ],
      "name": "endAuction",
      "outputs": [],
      "stateMutability": "nonpayable",
      "type": "function"
    },
    {
      "inputs": [],
      "name": "fee",
      "outputs": [
        {
          "internalType": "uint256",
          "name": "",
          "type": "uint256"
        }
      ],
      "stateMutability": "view",
      "type": "function"
    },
    {
      "inputs": [
        {
          "internalType": "uint256",
          "name": "_auctionId",
          "type": "uint256"
        }
      ],
      "name": "getAuctionStatus",
      "outputs": [
        {
          "internalType": "enum IDGNMMarket.AuctionStatus",
          "name": "",
          "type": "uint8"
        }
      ],
      "stateMutability": "view",
      "type": "function"
    },
    {
      "inputs": [],
      "name": "getAuctions",
      "outputs": [
        {
          "components": [
            {
              "internalType": "uint256",
              "name": "tokenId",
              "type": "uint256"
            },
            {
              "internalType": "address",
              "name": "seller",
              "type": "address"
            },
            {
              "internalType": "address",
              "name": "paymentToken",
              "type": "address"
            },
            {
              "internalType": "address",
              "name": "highestBidder",
              "type": "address"
            },
            {
              "internalType": "uint48",
              "name": "startTime",
              "type": "uint48"
            },
            {
              "internalType": "uint48",
              "name": "endTime",
              "type": "uint48"
            },
            {
              "internalType": "uint256",
              "name": "highestBid",
              "type": "uint256"
            },
            {
              "internalType": "uint256",
              "name": "directBuyPrice",
              "type": "uint256"
            },
            {
              "internalType": "uint256",
              "name": "startPrice",
              "type": "uint256"
            },
            {
              "internalType": "enum IDGNMMarket.AuctionStatus",
              "name": "status",
              "type": "uint8"
            }
          ],
          "internalType": "struct IDGNMMarket.Auction[]",
          "name": "",
          "type": "tuple[]"
        }
      ],
      "stateMutability": "view",
      "type": "function"
    },
    {
      "inputs": [],
      "name": "getListings",
      "outputs": [
        {
          "components": [
            {
              "internalType": "uint256",
              "name": "tokenId",
              "type": "uint256"
            },
            {
              "internalType": "address",
              "name": "seller",
              "type": "address"
            },
            {
              "internalType": "address",
              "name": "paymentToken",
              "type": "address"
            },
            {
              "internalType": "uint256",
              "name": "buyPrice",
              "type": "uint256"
            },
            {
              "internalType": "enum IDGNMMarket.ListingStatus",
              "name": "status",
              "type": "uint8"
            }
          ],
          "internalType": "struct IDGNMMarket.Listing[]",
          "name": "",
          "type": "tuple[]"
        }
      ],
      "stateMutability": "view",
      "type": "function"
    },
    {
      "inputs": [
        {
          "internalType": "uint256",
          "name": "tokenId",
          "type": "uint256"
        }
      ],
      "name": "getTokenBuyOffers",
      "outputs": [
        {
          "components": [
            {
              "internalType": "address",
              "name": "offerer",
              "type": "address"
            },
            {
              "internalType": "uint256",
              "name": "price",
              "type": "uint256"
            },
            {
              "internalType": "address",
              "name": "paymentToken",
              "type": "address"
            },
            {
              "internalType": "uint48",
              "name": "expireTime",
              "type": "uint48"
            },
            {
              "internalType": "enum IDGNMMarket.OfferStatus",
              "name": "status",
              "type": "uint8"
            }
          ],
          "internalType": "struct IDGNMMarket.Offer[]",
          "name": "",
          "type": "tuple[]"
        }
      ],
      "stateMutability": "view",
      "type": "function"
    },
    {
      "inputs": [
        {
          "internalType": "uint256",
          "name": "auctionId",
          "type": "uint256"
        },
        {
          "internalType": "address",
          "name": "account",
          "type": "address"
        }
      ],
      "name": "getUserBidAmount",
      "outputs": [
        {
          "internalType": "uint256",
          "name": "",
          "type": "uint256"
        }
      ],
      "stateMutability": "view",
      "type": "function"
    },
    {
      "inputs": [
        {
          "internalType": "uint256",
          "name": "_tokenId",
          "type": "uint256"
        },
        {
          "internalType": "address",
          "name": "_paymentToken",
          "type": "address"
        },
        {
          "internalType": "uint256",
          "name": "_buyPrice",
          "type": "uint256"
        }
      ],
      "name": "listItem",
      "outputs": [
        {
          "internalType": "uint256",
          "name": "listingId",
          "type": "uint256"
        }
      ],
      "stateMutability": "nonpayable",
      "type": "function"
    },
    {
      "inputs": [
        {
          "internalType": "uint256",
          "name": "_tokenId",
          "type": "uint256"
        },
        {
          "internalType": "address",
          "name": "_paymentToken",
          "type": "address"
        },
        {
          "internalType": "uint256",
          "name": "_offerPrice",
          "type": "uint256"
        },
        {
          "internalType": "uint256",
          "name": "_expirationTime",
          "type": "uint256"
        }
      ],
      "name": "makeOffer",
      "outputs": [
        {
          "internalType": "uint256",
          "name": "offerId",
          "type": "uint256"
        }
      ],
      "stateMutability": "payable",
      "type": "function"
    },
    {
      "inputs": [
        {
          "internalType": "address",
          "name": "",
          "type": "address"
        },
        {
          "internalType": "address",
          "name": "",
          "type": "address"
        },
        {
          "internalType": "uint256",
          "name": "",
          "type": "uint256"
        },
        {
          "internalType": "bytes",
          "name": "",
          "type": "bytes"
        }
      ],
      "name": "onERC721Received",
      "outputs": [
        {
          "internalType": "bytes4",
          "name": "",
          "type": "bytes4"
        }
      ],
      "stateMutability": "nonpayable",
      "type": "function"
    },
    {
      "inputs": [],
      "name": "owner",
      "outputs": [
        {
          "internalType": "address",
          "name": "",
          "type": "address"
        }
      ],
      "stateMutability": "view",
      "type": "function"
    },
    {
      "inputs": [],
      "name": "renounceOwnership",
      "outputs": [],
      "stateMutability": "nonpayable",
      "type": "function"
    },
    {
      "inputs": [
        {
          "internalType": "uint256",
          "name": "_fee",
          "type": "uint256"
        }
      ],
      "name": "setFee",
      "outputs": [],
      "stateMutability": "nonpayable",
      "type": "function"
    },
    {
      "inputs": [
        {
          "internalType": "address",
          "name": "_newRecipient",
          "type": "address"
        }
      ],
      "name": "setFeeRecipient",
      "outputs": [],
      "stateMutability": "nonpayable",
      "type": "function"
    },
    {
      "inputs": [
        {
          "internalType": "uint256",
          "name": "_tokenId",
          "type": "uint256"
        },
        {
          "internalType": "address",
          "name": "_paymentToken",
          "type": "address"
        },
        {
          "internalType": "uint256",
          "name": "_directBuyPrice",
          "type": "uint256"
        },
        {
          "internalType": "uint256",
          "name": "_startPrice",
          "type": "uint256"
        },
        {
          "internalType": "uint256",
          "name": "_startTime",
          "type": "uint256"
        },
        {
          "internalType": "uint256",
          "name": "_endTime",
          "type": "uint256"
        }
      ],
      "name": "startAuction",
      "outputs": [
        {
          "internalType": "uint256",
          "name": "auctionId",
          "type": "uint256"
        }
      ],
      "stateMutability": "nonpayable",
      "type": "function"
    },
    {
      "inputs": [
        {
          "internalType": "uint256",
          "name": "",
          "type": "uint256"
        }
      ],
      "name": "supportedERC20tokens",
      "outputs": [
        {
          "internalType": "address",
          "name": "",
          "type": "address"
        }
      ],
      "stateMutability": "view",
      "type": "function"
    },
    {
      "inputs": [
        {
          "internalType": "address",
          "name": "newOwner",
          "type": "address"
        }
      ],
      "name": "transferOwnership",
      "outputs": [],
      "stateMutability": "nonpayable",
      "type": "function"
    },
    {
      "inputs": [
        {
          "internalType": "uint256",
          "name": "_auctionId",
          "type": "uint256"
        }
      ],
      "name": "withdrawBid",
      "outputs": [],
      "stateMutability": "nonpayable",
      "type": "function"
    }
  ],
  "bytecode": "0x60a0604052600a6007553480156200001657600080fd5b5060405162002cb438038062002cb48339810160408190526200003991620000e0565b620000443362000090565b6001600160a01b0381166200006c57604051633ef4898960e21b815260040160405180910390fd5b6001600160a01b0316608052600880546001600160a01b0319163317905562000112565b600080546001600160a01b038381166001600160a01b0319831681178455604051919092169283917f8be0079c531659141344cd1fd0a4f28419497f9722a3daafe3b4186f6b6457e09190a35050565b600060208284031215620000f357600080fd5b81516001600160a01b03811681146200010b57600080fd5b9392505050565b608051612b40620001746000396000818161067101528181610d9401528181610f470152818161113c0152818161148d015281816115190152818161173201528181611b0101528181611d250152818161200301526122db0152612b406000f3fe6080604052600436106101815760003560e01c8063996ff749116100d1578063ddca3f431161008a578063e7fb74c711610064578063e7fb74c714610494578063f1b2d6a3146104a7578063f2fde38b146104c9578063fcd8d39e146104e957600080fd5b8063ddca3f431461044b578063df7a937b14610461578063e74b981b1461047457600080fd5b8063996ff74914610389578063ae40ee9f146103b6578063b9a2de3a146103c9578063c69fc6bf146103e9578063d45557cc14610409578063d7c069191461042957600080fd5b80636d69fcaf1161013e57806381257bd51161011857806381257bd5146102d45780638da5cb5b146102f457806391dad3071461032657806396b5a7551461036957600080fd5b80636d69fcaf14610272578063715018a6146102925780637765c52c146102a757600080fd5b80630eaaf4c814610186578063132e9db6146101a8578063150b7a02146101db578063305a67a81461021f578063598647f81461023f57806369fe0e2d14610252575b600080fd5b34801561019257600080fd5b506101a66101a1366004612580565b610509565b005b3480156101b457600080fd5b506101c86101c33660046125ae565b61063c565b6040519081526020015b60405180910390f35b3480156101e757600080fd5b506102066101f63660046125fc565b630a85bd0160e11b949350505050565b6040516001600160e01b031990911681526020016101d2565b34801561022b57600080fd5b506101a661023a366004612580565b6107c9565b6101a661024d3660046126dc565b6108f7565b34801561025e57600080fd5b506101a661026d366004612580565b610b54565b34801561027e57600080fd5b506101a661028d3660046126fe565b610bb6565b34801561029e57600080fd5b506101a6610c99565b3480156102b357600080fd5b506102c76102c2366004612580565b610cad565b6040516101d2919061274c565b3480156102e057600080fd5b506101a66102ef3660046126dc565b610cbe565b34801561030057600080fd5b506000546001600160a01b03165b6040516001600160a01b0390911681526020016101d2565b34801561033257600080fd5b506101c861034136600461275a565b60009182526006602090815260408084206001600160a01b0393909316845291905290205490565b34801561037557600080fd5b506101a6610384366004612580565b610e4a565b34801561039557600080fd5b506103a96103a4366004612580565b611028565b6040516101d2919061278a565b6101c86103c436600461281c565b611110565b3480156103d557600080fd5b506101a66103e4366004612580565b611375565b3480156103f557600080fd5b506101c8610404366004612859565b6115cd565b34801561041557600080fd5b506101a66104243660046126dc565b6117ee565b34801561043557600080fd5b5061043e61190e565b6040516101d291906128a9565b34801561045757600080fd5b506101c860075481565b6101a661046f366004612580565b611a22565b34801561048057600080fd5b506101a661048f3660046126fe565b611baa565b6101a66104a2366004612580565b611bd4565b3480156104b357600080fd5b506104bc611e08565b6040516101d2919061296b565b3480156104d557600080fd5b506101a66104e43660046126fe565b611ecc565b3480156104f557600080fd5b5061030e610504366004612580565b611f45565b60006002828154811061051e5761051e6129e8565b600091825260209091206007600890920201015460ff16600481111561054657610546612722565b036105a2576002818154811061055e5761055e6129e8565b60009182526020909120600360089092020101546001600160a01b031633036105a257604051630b89c6fb60e01b8152600481018290526024015b60405180910390fd5b6000818152600660209081526040808320338452909152812054908190036105e057604051633e08c09160e11b815260048101839052602401610599565b600082815260066020908152604080832033845290915281205560028054610638919084908110610613576106136129e8565b60009182526020909120600260089092020101546001600160a01b0316303384611f6f565b5050565b600061064783611fa4565b6106518433611ff7565b60405163020604bf60e21b81526004810185905230906001600160a01b037f0000000000000000000000000000000000000000000000000000000000000000169063081812fc90602401602060405180830381865afa1580156106b8573d6000803e3d6000fd5b505050506040513d601f19601f820116820180604052508101906106dc91906129fe565b6001600160a01b031614610706576040516307ab963160e41b815260048101859052602401610599565b5060018054808201808355600083815291929083908110610729576107296129e8565b600091825260209182902060059190910201868155600181018054336001600160a01b031991821681179092556002830180549091166001600160a01b0389161790556003820186905560048201805460ff191690556040805186815293840191909152828101889052519092507fc93edc6ee14cd6c0c2842099adfa8953b237dbdad304ba28e96dce8a7f2a828c9181900360600190a1509392505050565b600181815481106107dc576107dc6129e8565b60009182526020909120600590910201600101546001600160a01b0316331461081b57604051630819d2fd60e11b815260048101829052602401610599565b600060018281548110610830576108306129e8565b600091825260209091206004600590920201015460ff16600281111561085857610858612722565b146108795760405163701df8c360e01b815260048101829052602401610599565b60026001828154811061088e5761088e6129e8565b60009182526020909120600460059092020101805460ff191660018360028111156108bb576108bb612722565b02179055506040518181527fc488cd4b714d7cba0f629146d7651a71b310fdf6f2b70ed73bde9d78d46dbabe906020015b60405180910390a150565b60006002838154811061090c5761090c6129e8565b6000918252602082206008909102019150610926846120ba565b600481111561093757610937612722565b1461095857604051631ea1031b60e11b815260048101849052602401610599565b60038101546001600160a01b0316330361098857604051635a24a39760e11b815260048101849052602401610599565b60028101546001600160a01b03168061099f573492505b600084815260066020908152604080832033845290915290205460038301546001600160a01b031615610a015760048301546109db8583612a31565b116109fc5760405163056694b360e31b815260048101869052602401610599565b610a29565b8260060154841015610a295760405163056694b360e31b815260048101869052602401610599565b6001600160a01b03821615610aad576040516323b872dd60e01b81526001600160a01b038316906323b872dd90610a6890339030908990600401612a44565b6020604051808303816000875af1158015610a87573d6000803e3d6000fd5b505050506040513d601f19601f82011682018060405250810190610aab9190612a68565b505b610ab78482612a31565b6000868152600660209081526040808320338085529252909120919091556003840180546001600160a01b0319169091179055610af48482612a31565b60048401557f558a0d5d5468d74b0db24c74eb348b42271c2ebb4c9e953ced38aaed95fa43618533610b268785612a31565b604080519384526001600160a01b039092166020840152908201526060015b60405180910390a15050505050565b610b5c612187565b600a811115610b815760405163caac4d6960e01b815260048101829052602401610599565b60078190556040518181527f63fe946ed58429ac3c5e64d4356ff92c26d7fa1e73586515df8ba9f059ab54a5906020016108ec565b610bbe612187565b6001600160a01b03811660009081526004602052604090205460ff1615610c0357604051631174d51360e21b81526001600160a01b0382166004820152602401610599565b6001600160a01b0381166000818152600460209081526040808320805460ff191660019081179091556003805491820181559093527fc2575a0e9e593c00f959f8c92f12db2869c3395a3b0502d05e2516446f71f85b90920180546001600160a01b0319168417905590519182527f674133fffafa5256a29e9cc4c4035ada22ef8ece1fbae89d9b2cf2709c3bdcd791016108ec565b610ca1612187565b610cab60006121e1565b565b6000610cb8826120ba565b92915050565b6000828152600560205260408120805483908110610cde57610cde6129e8565b90600052602060002090600302019050610cf88333611ff7565b6000610d048484612231565b6001811115610d1557610d15612722565b14610d3d576040516373acce7360e11b81526004810183905260248101849052604401610599565b805460028201546001830154610d6692869233926001600160a01b0392831692909116906122b1565b60028101805460ff60d01b1916600160d01b1790558054604051632142170760e11b81526001600160a01b037f00000000000000000000000000000000000000000000000000000000000000008116926342842e0e92610dce92339216908890600401612a44565b600060405180830381600087803b158015610de857600080fd5b505af1158015610dfc573d6000803e3d6000fd5b5050604080518581526020810187905233918101919091527fcb229072cbcd1d5410a56504f86a872c0eac1578c7eb4463ec190b52d3b669e2925060600190505b60405180910390a1505050565b60028181548110610e5d57610e5d6129e8565b60009182526020909120600890910201600101546001600160a01b03163314610e9c57604051630819d2fd60e11b815260048101829052602401610599565b6000610ea7826120ba565b90506000816004811115610ebd57610ebd612722565b14158015610edd57506001816004811115610eda57610eda612722565b14155b15610efe57604051639b3c2f4360e01b815260048101839052602401610599565b600460028381548110610f1357610f136129e8565b60009182526020909120600760089092020101805460ff19166001836004811115610f4057610f40612722565b02179055507f00000000000000000000000000000000000000000000000000000000000000006001600160a01b03166342842e0e303360028681548110610f8957610f896129e8565b9060005260206000209060080201600001546040518463ffffffff1660e01b8152600401610fb993929190612a44565b600060405180830381600087803b158015610fd357600080fd5b505af1158015610fe7573d6000803e3d6000fd5b505050507f28601d865dccc9f113e15a7185c1b38c085d598c71250d3337916a428536d7718260405161101c91815260200190565b60405180910390a15050565b606060056000838152602001908152602001600020805480602002602001604051908101604052809291908181526020016000905b828210156111055760008481526020908190206040805160a0810182526003860290920180546001600160a01b03908116845260018083015495850195909552600282015490811692840192909252600160a01b820465ffffffffffff16606084015291926080840191600160d01b900460ff16908111156110e1576110e1612722565b60018111156110f2576110f2612722565b815250508152602001906001019061105d565b505050509050919050565b600061111b84611fa4565b6040516331a9108f60e11b8152600481018690526000906001600160a01b037f00000000000000000000000000000000000000000000000000000000000000001690636352211e90602401602060405180830381865afa158015611183573d6000803e3d6000fd5b505050506040513d601f19601f820116820180604052508101906111a791906129fe565b6001600160a01b0316036111ba57600080fd5b4282116111da576040516326cfc02d60e11b815260040160405180910390fd5b6001600160a01b03841661120d578234146112085760405163d0c32f0560e01b815260040160405180910390fd5b61129c565b604051636eb1769f60e11b815233600482015230602482015283906001600160a01b0386169063dd62ed3e90604401602060405180830381865afa158015611259573d6000803e3d6000fd5b505050506040513d601f19601f8201168201806040525081019061127d9190612a8a565b101561129c57604051632f07452d60e01b815260040160405180910390fd5b50600084815260056020526040812080546001810180835590929190839081106112c8576112c86129e8565b6000918252602091829020600391909102018054336001600160a01b0319909116811782556002820180546001840189905560ff60d01b196001600160a01b038b166001600160d01b031990921691909117600160a01b65ffffffffffff8a160217169055604080518681529384018a905283015291507fefda68dc90a0bc6f999b14e14c27c803c35cffe140e95bee2f13bae025877ad09060600160405180910390a150949350505050565b60006002828154811061138a5761138a6129e8565b60009182526020909120600890910201905060026113a7836120ba565b60048111156113b8576113b8612722565b1415806113de57506000600782015460ff1660048111156113db576113db612722565b14155b1561141957600381015460405163a220c8db60e01b815260048101849052600160d01b90910465ffffffffffff166024820152604401610599565b805460078201805460ff1916600217905560038201546000906001600160a01b0316156114fd575060038201546001830154600284015460048501546001600160a01b0393841693611476938693908216923092909116906122b1565b604051632142170760e11b81526001600160a01b037f000000000000000000000000000000000000000000000000000000000000000016906342842e0e906114c690309085908790600401612a44565b600060405180830381600087803b1580156114e057600080fd5b505af11580156114f4573d6000803e3d6000fd5b50505050611586565b6001830154604051632142170760e11b81526001600160a01b037f00000000000000000000000000000000000000000000000000000000000000008116926342842e0e9261155392309216908790600401612a44565b600060405180830381600087803b15801561156d57600080fd5b505af1158015611581573d6000803e3d6000fd5b505050505b604080518581526001600160a01b03831660208201527fc07789fac136048b605fef8e227ab89b2e33d8afc9ab4817d374197cd81443d6910160405180910390a150505050565b60006115d886611fa4565b6115e28733611ff7565b4283106115ef57826115f1565b425b65ffffffffffff1692508282116116255760405163d74d34f560e01b81526004810183905260248101849052604401610599565b836000036116465760405163152310ef60e11b815260040160405180910390fd5b83851161166957604051633677da3160e21b815260048101869052602401610599565b50600280546001810180835560008381529192908390811061168d5761168d6129e8565b600091825260209091206008909102018881556001810180546001600160a01b0319908116339081179092556002830180546001600160a01b038c811691909316179055600583018990556006830188905560038301805465ffffffffffff888116600160d01b026001600160d01b03918b16600160a01b02919091169184169190911717905560078301805460ff19169055604051632142170760e11b81529293507f000000000000000000000000000000000000000000000000000000000000000016916342842e0e916117699130908d90600401612a44565b600060405180830381600087803b15801561178357600080fd5b505af1158015611797573d6000803e3d6000fd5b5050604080518581523360208201529081018b9052606081018790527fbf6dc7bdf2f23af5a506fe03ee1221f47d023a2227fbc949c6b812ae44534e6d9250608001905060405180910390a1509695505050505050565b600082815260056020526040812080548390811061180e5761180e6129e8565b6000918252602090912060039091020180549091506001600160a01b031633146118555760405163019b347d60e41b81526004810183905260248101849052604401610599565b60006118618484612231565b600181111561187257611872612722565b1461189a576040516373acce7360e11b81526004810183905260248101849052604401610599565b600281018054600160d01b60ff60d01b198216179091556001600160a01b03166118d857805460018201546118d8916001600160a01b031690612418565b60408051838152602081018590527fc3631089d86cf1fe0600bb8be145021dc1f4dbf1053ce815836f092d69cd9bdc9101610e3d565b60606002805480602002602001604051908101604052809291908181526020016000905b82821015611a195760008481526020908190206040805161014081018252600886029092018054835260018101546001600160a01b039081169484019490945260028101548416918301919091526003810154928316606083015265ffffffffffff600160a01b840481166080840152600160d01b90930490921660a082015260048083015460c0830152600583015460e08301526006830154610100830152600783015491929161012084019160ff909116908111156119f5576119f5612722565b6004811115611a0657611a06612722565b8152505081526020019060010190611932565b50505050905090565b600060028281548110611a3757611a376129e8565b6000918252602082206008909102019150611a51836120ba565b6004811115611a6257611a62612722565b14611a8357604051631ea1031b60e11b815260048101839052602401610599565b8054600282015460058301546001600160a01b039091169081158015611aa95750803414155b15611ac75760405163d0c32f0560e01b815260040160405180910390fd5b6001840154611ae39084906001600160a01b03163385856122b1565b60078401805460ff19166003179055604051632142170760e11b81527f00000000000000000000000000000000000000000000000000000000000000006001600160a01b0316906342842e0e90611b4290309033908890600401612a44565b600060405180830381600087803b158015611b5c57600080fd5b505af1158015611b70573d6000803e3d6000fd5b5050604080518881523360208201527fe5cec6200009b45d3289b1846e63800084e6cead28e6936e6914934d50e6734f9350019050610b45565b611bb2612187565b600880546001600160a01b0319166001600160a01b0392909216919091179055565b600060018281548110611be957611be96129e8565b60009182526020918290206040805160a08101825260059093029091018054835260018101546001600160a01b03908116948401949094526002808201549094169183019190915260038101546060830152600481015491929091608084019160ff90911690811115611c5e57611c5e612722565b6002811115611c6f57611c6f612722565b9052509050600081608001516002811115611c8c57611c8c612722565b14611cad5760405163701df8c360e01b815260048101839052602401610599565b60408101516001600160a01b0316158015611ccc575080606001513414155b15611cea5760405163d0c32f0560e01b815260040160405180910390fd5b611d078160000151826020015133846040015185606001516122b1565b60208101518151604051632142170760e11b81526001600160a01b037f000000000000000000000000000000000000000000000000000000000000000016926342842e0e92611d5b92339190600401612a44565b600060405180830381600087803b158015611d7557600080fd5b505af1158015611d89573d6000803e3d6000fd5b505050506001808381548110611da157611da16129e8565b60009182526020909120600460059092020101805460ff19166001836002811115611dce57611dce612722565b0217905550604080518381523360208201527f7de4035ced290be6d7724645d43bad448b5d8cc76743ff4da172c2d8e1caa0f5910161101c565b60606001805480602002602001604051908101604052809291908181526020016000905b82821015611a195760008481526020908190206040805160a081018252600586029092018054835260018101546001600160a01b03908116948401949094526002808201549094169183019190915260038101546060830152600481015491929091608084019160ff90911690811115611ea857611ea8612722565b6002811115611eb957611eb9612722565b8152505081526020019060010190611e2c565b611ed4612187565b6001600160a01b038116611f395760405162461bcd60e51b815260206004820152602660248201527f4f776e61626c653a206e6577206f776e657220697320746865207a65726f206160448201526564647265737360d01b6064820152608401610599565b611f42816121e1565b50565b60038181548110611f5557600080fd5b6000918252602090912001546001600160a01b0316905081565b8015611f9e576001600160a01b038416611f9257611f8d8282612418565b611f9e565b611f9e8484848461247d565b50505050565b6001600160a01b03811615611f42576001600160a01b03811660009081526004602052604090205460ff16611f425760405163ddb776fb60e01b81526001600160a01b0382166004820152602401610599565b806001600160a01b03167f00000000000000000000000000000000000000000000000000000000000000006001600160a01b0316636352211e846040518263ffffffff1660e01b815260040161204f91815260200190565b602060405180830381865afa15801561206c573d6000803e3d6000fd5b505050506040513d601f19601f8201168201806040525081019061209091906129fe565b6001600160a01b03161461063857604051636bff177560e01b815260048101839052602401610599565b600080600283815481106120d0576120d06129e8565b60009182526020909120600890910201600781015490915060ff1642600482600481111561210057612100612722565b148061211d5750600382600481111561211b5761211b612722565b145b1561212a57509392505050565b600383015465ffffffffffff808316600160a01b90920416111561215357506001949350505050565b600383015465ffffffffffff600160d01b90910481169082161161217c57506000949350505050565b506002949350505050565b6000546001600160a01b03163314610cab5760405162461bcd60e51b815260206004820181905260248201527f4f776e61626c653a2063616c6c6572206973206e6f7420746865206f776e65726044820152606401610599565b600080546001600160a01b038381166001600160a01b0319831681178455604051919092169283917f8be0079c531659141344cd1fd0a4f28419497f9722a3daafe3b4186f6b6457e09190a35050565b6000828152600560205260408120805482919084908110612254576122546129e8565b906000526020600020906003020190504265ffffffffffff168160020160149054906101000a900465ffffffffffff1665ffffffffffff16101561229c576001915050610cb8565b60020154600160d01b900460ff169050610cb8565b60405163152a902d60e11b8152600481018690526024810182905260009081906001600160a01b037f00000000000000000000000000000000000000000000000000000000000000001690632a55205a906044016040805180830381865afa158015612321573d6000803e3d6000fd5b505050506040513d601f19601f820116820180604052508101906123459190612aa3565b9150915060006103e86007548561235c9190612ad1565b6123669190612ae8565b60085490915061238390869088906001600160a01b031684611f6f565b8084036001600160a01b03888116908516148015906123a157508215155b15612401576123b286888686611f6f565b604080518a81526001600160a01b038616602082015290810184905290839003907ff670029fc6f5302baba881b4ae845d1453acdf752b4c19ed81fe0fa6a686409b9060600160405180910390a15b61240d86888a84611f6f565b505050505050505050565b6000826001600160a01b03168260405160006040518083038185875af1925050503d8060008114612465576040519150601f19603f3d011682016040523d82523d6000602084013e61246a565b606091505b505090508061247857600080fd5b505050565b306001600160a01b038416036125065760405163a9059cbb60e01b81526001600160a01b0383811660048301526024820183905285169063a9059cbb906044016020604051808303816000875af11580156124dc573d6000803e3d6000fd5b505050506040513d601f19601f820116820180604052508101906125009190612a68565b50611f9e565b6040516323b872dd60e01b81526001600160a01b038516906323b872dd9061253690869086908690600401612a44565b6020604051808303816000875af1158015612555573d6000803e3d6000fd5b505050506040513d601f19601f820116820180604052508101906125799190612a68565b5050505050565b60006020828403121561259257600080fd5b5035919050565b6001600160a01b0381168114611f4257600080fd5b6000806000606084860312156125c357600080fd5b8335925060208401356125d581612599565b929592945050506040919091013590565b634e487b7160e01b600052604160045260246000fd5b6000806000806080858703121561261257600080fd5b843561261d81612599565b9350602085013561262d81612599565b925060408501359150606085013567ffffffffffffffff8082111561265157600080fd5b818701915087601f83011261266557600080fd5b813581811115612677576126776125e6565b604051601f8201601f19908116603f0116810190838211818310171561269f5761269f6125e6565b816040528281528a60208487010111156126b857600080fd5b82602086016020830137600060208483010152809550505050505092959194509250565b600080604083850312156126ef57600080fd5b50508035926020909101359150565b60006020828403121561271057600080fd5b813561271b81612599565b9392505050565b634e487b7160e01b600052602160045260246000fd5b6005811061274857612748612722565b9052565b60208101610cb88284612738565b6000806040838503121561276d57600080fd5b82359150602083013561277f81612599565b809150509250929050565b602080825282518282018190526000919060409081850190868401855b8281101561280f57815180516001600160a01b039081168652878201518887015286820151168686015260608082015165ffffffffffff169086015260809081015190600282106127fa576127fa612722565b85015260a090930192908501906001016127a7565b5091979650505050505050565b6000806000806080858703121561283257600080fd5b84359350602085013561284481612599565b93969395505050506040820135916060013590565b60008060008060008060c0878903121561287257600080fd5b86359550602087013561288481612599565b95989597505050506040840135936060810135936080820135935060a0909101359150565b602080825282518282018190526000919060409081850190868401855b8281101561280f57815180518552868101516001600160a01b0390811688870152868201518116878701526060808301519091169086015260808082015165ffffffffffff9081169187019190915260a0808301519091169086015260c0808201519086015260e080820151908601526101008082015190860152610120908101519061295581870183612738565b50506101409390930192908501906001016128c6565b602080825282518282018190526000919060409081850190868401855b8281101561280f57815180518552868101516001600160a01b03908116888701528682015116868601526060808201519086015260809081015190600382106129d3576129d3612722565b85015260a09093019290850190600101612988565b634e487b7160e01b600052603260045260246000fd5b600060208284031215612a1057600080fd5b815161271b81612599565b634e487b7160e01b600052601160045260246000fd5b80820180821115610cb857610cb8612a1b565b6001600160a01b039384168152919092166020820152604081019190915260600190565b600060208284031215612a7a57600080fd5b8151801515811461271b57600080fd5b600060208284031215612a9c57600080fd5b5051919050565b60008060408385031215612ab657600080fd5b8251612ac181612599565b6020939093015192949293505050565b8082028115828204841417610cb857610cb8612a1b565b600082612b0557634e487b7160e01b600052601260045260246000fd5b50049056fea26469706673582212205f5883bf23c74207a86f53204301e0a10ea8d13aa33a7647d7c9cd7daa0fc73764736f6c63430008130033",
  "linkReferences": {},
  "deployedLinkReferences": {}
}