{
  "_format": "hh-sol-artifact-1",
  "contractName": "DGNMCollection",
  "sourceName": "contracts/DGNMCollection.sol",
  "abi": [
    {
      "inputs": [
        {
          "internalType": "address",
          "name": "_collectorsNftContract",
          "type": "address"
        },
        {
          "internalType": "uint256",
          "name": "_mintingFee",
          "type": "uint256"
        }
      ],
      "stateMutability": "nonpayable",
      "type": "constructor"
    },
    {
      "inputs": [],
      "name": "DGNM__ContractIsPaused",
      "type": "error"
    },
    {
      "inputs": [],
      "name": "DGNM__InsufficientAmount",
      "type": "error"
    },
    {
      "inputs": [],
      "name": "DGNM__OnlyRegisteredUser",
      "type": "error"
    },
    {
      "anonymous": false,
      "inputs": [
        {
          "indexed": true,
          "internalType": "address",
          "name": "owner",
          "type": "address"
        },
        {
          "indexed": true,
          "internalType": "address",
          "name": "approved",
          "type": "address"
        },
        {
          "indexed": true,
          "internalType": "uint256",
          "name": "tokenId",
          "type": "uint256"
        }
      ],
      "name": "Approval",
      "type": "event"
    },
    {
      "anonymous": false,
      "inputs": [
        {
          "indexed": true,
          "internalType": "address",
          "name": "owner",
          "type": "address"
        },
        {
          "indexed": true,
          "internalType": "address",
          "name": "operator",
          "type": "address"
        },
        {
          "indexed": false,
          "internalType": "bool",
          "name": "approved",
          "type": "bool"
        }
      ],
      "name": "ApprovalForAll",
      "type": "event"
    },
    {
      "anonymous": false,
      "inputs": [
        {
          "indexed": false,
          "internalType": "uint256",
          "name": "_fromTokenId",
          "type": "uint256"
        },
        {
          "indexed": false,
          "internalType": "uint256",
          "name": "_toTokenId",
          "type": "uint256"
        }
      ],
      "name": "BatchMetadataUpdate",
      "type": "event"
    },
    {
      "anonymous": false,
      "inputs": [
        {
          "indexed": false,
          "internalType": "uint256",
          "name": "newFee",
          "type": "uint256"
        }
      ],
      "name": "DGNM__NewMintFee",
      "type": "event"
    },
    {
      "anonymous": false,
      "inputs": [
        {
          "indexed": false,
          "internalType": "uint256",
          "name": "state",
          "type": "uint256"
        }
      ],
      "name": "DGNM__Pause",
      "type": "event"
    },
    {
      "anonymous": false,
      "inputs": [
        {
          "indexed": false,
          "internalType": "uint256",
          "name": "_tokenId",
          "type": "uint256"
        }
      ],
      "name": "MetadataUpdate",
      "type": "event"
    },
    {
      "anonymous": false,
      "inputs": [
        {
          "indexed": true,
          "internalType": "address",
          "name": "previousOwner",
          "type": "address"
        },
        {
          "indexed": true,
          "internalType": "address",
          "name": "newOwner",
          "type": "address"
        }
      ],
      "name": "OwnershipTransferred",
      "type": "event"
    },
    {
      "anonymous": false,
      "inputs": [
        {
          "indexed": true,
          "internalType": "address",
          "name": "from",
          "type": "address"
        },
        {
          "indexed": true,
          "internalType": "address",
          "name": "to",
          "type": "address"
        },
        {
          "indexed": true,
          "internalType": "uint256",
          "name": "tokenId",
          "type": "uint256"
        }
      ],
      "name": "Transfer",
      "type": "event"
    },
    {
      "inputs": [
        {
          "internalType": "address",
          "name": "to",
          "type": "address"
        },
        {
          "internalType": "uint256",
          "name": "tokenId",
          "type": "uint256"
        }
      ],
      "name": "approve",
      "outputs": [],
      "stateMutability": "nonpayable",
      "type": "function"
    },
    {
      "inputs": [
        {
          "internalType": "address",
          "name": "owner",
          "type": "address"
        }
      ],
      "name": "balanceOf",
      "outputs": [
        {
          "internalType": "uint256",
          "name": "",
          "type": "uint256"
        }
      ],
      "stateMutability": "view",
      "type": "function"
    },
    {
      "inputs": [],
      "name": "collectorsNftContract",
      "outputs": [
        {
          "internalType": "address",
          "name": "",
          "type": "address"
        }
      ],
      "stateMutability": "view",
      "type": "function"
    },
    {
      "inputs": [],
      "name": "getAllNfts",
      "outputs": [
        {
          "components": [
            {
              "internalType": "uint256",
              "name": "id",
              "type": "uint256"
            },
            {
              "internalType": "string",
              "name": "uri",
              "type": "string"
            }
          ],
          "internalType": "struct DGNMCollection.ArtRender[]",
          "name": "",
          "type": "tuple[]"
        }
      ],
      "stateMutability": "view",
      "type": "function"
    },
    {
      "inputs": [
        {
          "internalType": "uint256",
          "name": "tokenId",
          "type": "uint256"
        }
      ],
      "name": "getApproved",
      "outputs": [
        {
          "internalType": "address",
          "name": "",
          "type": "address"
        }
      ],
      "stateMutability": "view",
      "type": "function"
    },
    {
      "inputs": [
        {
          "internalType": "address",
          "name": "account",
          "type": "address"
        }
      ],
      "name": "getUserNfts",
      "outputs": [
        {
          "components": [
            {
              "internalType": "uint256",
              "name": "id",
              "type": "uint256"
            },
            {
              "internalType": "string",
              "name": "uri",
              "type": "string"
            }
          ],
          "internalType": "struct DGNMCollection.ArtRender[]",
          "name": "",
          "type": "tuple[]"
        }
      ],
      "stateMutability": "view",
      "type": "function"
    },
    {
      "inputs": [
        {
          "internalType": "address",
          "name": "owner",
          "type": "address"
        },
        {
          "internalType": "address",
          "name": "operator",
          "type": "address"
        }
      ],
      "name": "isApprovedForAll",
      "outputs": [
        {
          "internalType": "bool",
          "name": "",
          "type": "bool"
        }
      ],
      "stateMutability": "view",
      "type": "function"
    },
    {
      "inputs": [],
      "name": "mintFee",
      "outputs": [
        {
          "internalType": "uint256",
          "name": "",
          "type": "uint256"
        }
      ],
      "stateMutability": "view",
      "type": "function"
    },
    {
      "inputs": [
        {
          "internalType": "address",
          "name": "recipient",
          "type": "address"
        },
        {
          "internalType": "string",
          "name": "uri",
          "type": "string"
        }
      ],
      "name": "mintNFT",
      "outputs": [
        {
          "internalType": "uint256",
          "name": "",
          "type": "uint256"
        }
      ],
      "stateMutability": "payable",
      "type": "function"
    },
    {
      "inputs": [
        {
          "internalType": "address",
          "name": "recipient",
          "type": "address"
        },
        {
          "internalType": "string",
          "name": "uri",
          "type": "string"
        },
        {
          "internalType": "address",
          "name": "royaltyReceiver",
          "type": "address"
        },
        {
          "internalType": "uint96",
          "name": "feeNumerator",
          "type": "uint96"
        }
      ],
      "name": "mintWithRoyalty",
      "outputs": [
        {
          "internalType": "uint256",
          "name": "",
          "type": "uint256"
        }
      ],
      "stateMutability": "payable",
      "type": "function"
    },
    {
      "inputs": [],
      "name": "name",
      "outputs": [
        {
          "internalType": "string",
          "name": "",
          "type": "string"
        }
      ],
      "stateMutability": "view",
      "type": "function"
    },
    {
      "inputs": [],
      "name": "owner",
      "outputs": [
        {
          "internalType": "address",
          "name": "",
          "type": "address"
        }
      ],
      "stateMutability": "view",
      "type": "function"
    },
    {
      "inputs": [
        {
          "internalType": "uint256",
          "name": "tokenId",
          "type": "uint256"
        }
      ],
      "name": "ownerOf",
      "outputs": [
        {
          "internalType": "address",
          "name": "",
          "type": "address"
        }
      ],
      "stateMutability": "view",
      "type": "function"
    },
    {
      "inputs": [
        {
          "internalType": "uint256",
          "name": "_state",
          "type": "uint256"
        }
      ],
      "name": "pause",
      "outputs": [],
      "stateMutability": "payable",
      "type": "function"
    },
    {
      "inputs": [],
      "name": "paused",
      "outputs": [
        {
          "internalType": "uint256",
          "name": "",
          "type": "uint256"
        }
      ],
      "stateMutability": "view",
      "type": "function"
    },
    {
      "inputs": [],
      "name": "renounceOwnership",
      "outputs": [],
      "stateMutability": "nonpayable",
      "type": "function"
    },
    {
      "inputs": [
        {
          "internalType": "uint256",
          "name": "tokenId",
          "type": "uint256"
        },
        {
          "internalType": "uint256",
          "name": "salePrice",
          "type": "uint256"
        }
      ],
      "name": "royaltyInfo",
      "outputs": [
        {
          "internalType": "address",
          "name": "",
          "type": "address"
        },
        {
          "internalType": "uint256",
          "name": "",
          "type": "uint256"
        }
      ],
      "stateMutability": "view",
      "type": "function"
    },
    {
      "inputs": [
        {
          "internalType": "address",
          "name": "from",
          "type": "address"
        },
        {
          "internalType": "address",
          "name": "to",
          "type": "address"
        },
        {
          "internalType": "uint256",
          "name": "tokenId",
          "type": "uint256"
        }
      ],
      "name": "safeTransferFrom",
      "outputs": [],
      "stateMutability": "nonpayable",
      "type": "function"
    },
    {
      "inputs": [
        {
          "internalType": "address",
          "name": "from",
          "type": "address"
        },
        {
          "internalType": "address",
          "name": "to",
          "type": "address"
        },
        {
          "internalType": "uint256",
          "name": "tokenId",
          "type": "uint256"
        },
        {
          "internalType": "bytes",
          "name": "data",
          "type": "bytes"
        }
      ],
      "name": "safeTransferFrom",
      "outputs": [],
      "stateMutability": "nonpayable",
      "type": "function"
    },
    {
      "inputs": [
        {
          "internalType": "address",
          "name": "operator",
          "type": "address"
        },
        {
          "internalType": "bool",
          "name": "approved",
          "type": "bool"
        }
      ],
      "name": "setApprovalForAll",
      "outputs": [],
      "stateMutability": "nonpayable",
      "type": "function"
    },
    {
      "inputs": [
        {
          "internalType": "uint256",
          "name": "_newFee",
          "type": "uint256"
        }
      ],
      "name": "setMintFee",
      "outputs": [],
      "stateMutability": "payable",
      "type": "function"
    },
    {
      "inputs": [
        {
          "internalType": "bytes4",
          "name": "interfaceId",
          "type": "bytes4"
        }
      ],
      "name": "supportsInterface",
      "outputs": [
        {
          "internalType": "bool",
          "name": "",
          "type": "bool"
        }
      ],
      "stateMutability": "view",
      "type": "function"
    },
    {
      "inputs": [],
      "name": "symbol",
      "outputs": [
        {
          "internalType": "string",
          "name": "",
          "type": "string"
        }
      ],
      "stateMutability": "view",
      "type": "function"
    },
    {
      "inputs": [
        {
          "internalType": "uint256",
          "name": "tokenId",
          "type": "uint256"
        }
      ],
      "name": "tokenURI",
      "outputs": [
        {
          "internalType": "string",
          "name": "",
          "type": "string"
        }
      ],
      "stateMutability": "view",
      "type": "function"
    },
    {
      "inputs": [
        {
          "internalType": "address",
          "name": "from",
          "type": "address"
        },
        {
          "internalType": "address",
          "name": "to",
          "type": "address"
        },
        {
          "internalType": "uint256",
          "name": "tokenId",
          "type": "uint256"
        }
      ],
      "name": "transferFrom",
      "outputs": [],
      "stateMutability": "nonpayable",
      "type": "function"
    },
    {
      "inputs": [
        {
          "internalType": "address",
          "name": "newOwner",
          "type": "address"
        }
      ],
      "name": "transferOwnership",
      "outputs": [],
      "stateMutability": "nonpayable",
      "type": "function"
    },
    {
      "inputs": [],
      "name": "withdraw",
      "outputs": [],
      "stateMutability": "payable",
      "type": "function"
    }
  ],
  "bytecode": "0x60a06040526002600b55600a600c553480156200001b57600080fd5b5060405162002454380380620024548339810160408190526200003e9162000250565b6040518060400160405280601481526020017f446e65726f20476f6c644e6674204d61726b65740000000000000000000000008152506040518060400160405280600481526020016344474e4d60e01b8152508160009081620000a2919062000331565b506001620000b1828262000331565b505050620000ce620000c8620000f560201b60201c565b620000f9565b6001600160a01b038216608052600c819055620000ed3360006200014b565b5050620003fd565b3390565b600980546001600160a01b038381166001600160a01b0319831681179093556040519116919082907f8be0079c531659141344cd1fd0a4f28419497f9722a3daafe3b4186f6b6457e090600090a35050565b6127106001600160601b0382161115620001bf5760405162461bcd60e51b815260206004820152602a60248201527f455243323938313a20726f79616c7479206665652077696c6c206578636565646044820152692073616c65507269636560b01b60648201526084015b60405180910390fd5b6001600160a01b038216620002175760405162461bcd60e51b815260206004820152601960248201527f455243323938313a20696e76616c6964207265636569766572000000000000006044820152606401620001b6565b604080518082019091526001600160a01b039092168083526001600160601b039091166020909201829052600160a01b90910217600755565b600080604083850312156200026457600080fd5b82516001600160a01b03811681146200027c57600080fd5b6020939093015192949293505050565b634e487b7160e01b600052604160045260246000fd5b600181811c90821680620002b757607f821691505b602082108103620002d857634e487b7160e01b600052602260045260246000fd5b50919050565b601f8211156200032c57600081815260208120601f850160051c81016020861015620003075750805b601f850160051c820191505b81811015620003285782815560010162000313565b5050505b505050565b81516001600160401b038111156200034d576200034d6200028c565b62000365816200035e8454620002a2565b84620002de565b602080601f8311600181146200039d5760008415620003845750858301515b600019600386901b1c1916600185901b17855562000328565b600085815260208120601f198616915b82811015620003ce57888601518255948401946001909101908401620003ad565b5085821015620003ed5787850151600019600388901b60f8161c191681555b5050505050600190811b01905550565b608051612034620004206000396000818161036b01526111f501526120346000f3fe60806040526004361061019c5760003560e01c80636dab8648116100ec578063a22cb4651161008a578063e985e9c511610064578063e985e9c514610497578063eacabe14146104b7578063eddd0d9c146104ca578063f2fde38b146104dd57600080fd5b8063a22cb46514610437578063b88d4fde14610457578063c87b56dd1461047757600080fd5b8063732e8d73116100c6578063732e8d73146103c25780637908d009146103e45780638da5cb5b1461040457806395d89b411461042257600080fd5b80636dab86481461035957806370a082311461038d578063715018a6146103ad57600080fd5b806323b872dd1161015957806342842e0e1161013357806342842e0e146102f057806344e96670146103105780635c975abb146103235780636352211e1461033957600080fd5b806323b872dd146102895780632a55205a146102a95780633ccfd60b146102e857600080fd5b806301ffc9a7146101a157806306fdde03146101d6578063081812fc146101f8578063095ea7b314610230578063136439dd1461025257806313966db514610265575b600080fd5b3480156101ad57600080fd5b506101c16101bc3660046118b0565b6104fd565b60405190151581526020015b60405180910390f35b3480156101e257600080fd5b506101eb61050e565b6040516101cd9190611913565b34801561020457600080fd5b50610218610213366004611926565b6105a0565b6040516001600160a01b0390911681526020016101cd565b34801561023c57600080fd5b5061025061024b36600461195b565b6105c7565b005b610250610260366004611926565b6106e1565b34801561027157600080fd5b5061027b600c5481565b6040519081526020016101cd565b34801561029557600080fd5b506102506102a4366004611985565b61073a565b3480156102b557600080fd5b506102c96102c43660046119c1565b61076b565b604080516001600160a01b0390931683526020830191909152016101cd565b610250610817565b3480156102fc57600080fd5b5061025061030b366004611985565b610893565b61027b61031e366004611a8f565b6108ae565b34801561032f57600080fd5b5061027b600b5481565b34801561034557600080fd5b50610218610354366004611926565b6108d3565b34801561036557600080fd5b506102187f000000000000000000000000000000000000000000000000000000000000000081565b34801561039957600080fd5b5061027b6103a8366004611b0c565b610933565b3480156103b957600080fd5b506102506109b9565b3480156103ce57600080fd5b506103d76109cd565b6040516101cd9190611b27565b3480156103f057600080fd5b506103d76103ff366004611b0c565b610b26565b34801561041057600080fd5b506009546001600160a01b0316610218565b34801561042e57600080fd5b506101eb610cc1565b34801561044357600080fd5b50610250610452366004611ba9565b610cd0565b34801561046357600080fd5b50610250610472366004611be0565b610cdf565b34801561048357600080fd5b506101eb610492366004611926565b610d17565b3480156104a357600080fd5b506101c16104b2366004611c5c565b610db9565b61027b6104c5366004611c8f565b610de7565b6102506104d8366004611926565b610dfa565b3480156104e957600080fd5b506102506104f8366004611b0c565b610e37565b600061050882610ead565b92915050565b60606000805461051d90611cdd565b80601f016020809104026020016040519081016040528092919081815260200182805461054990611cdd565b80156105965780601f1061056b57610100808354040283529160200191610596565b820191906000526020600020905b81548152906001019060200180831161057957829003601f168201915b5050505050905090565b60006105ab82610ed2565b506000908152600460205260409020546001600160a01b031690565b60006105d2826108d3565b9050806001600160a01b0316836001600160a01b0316036106445760405162461bcd60e51b815260206004820152602160248201527f4552433732313a20617070726f76616c20746f2063757272656e74206f776e656044820152603960f91b60648201526084015b60405180910390fd5b336001600160a01b038216148061066057506106608133610db9565b6106d25760405162461bcd60e51b815260206004820152603d60248201527f4552433732313a20617070726f76652063616c6c6572206973206e6f7420746f60448201527f6b656e206f776e6572206f7220617070726f76656420666f7220616c6c000000606482015260840161063b565b6106dc8383610f31565b505050565b6106e9610f9f565b80600114806106f85750806002145b1561070357600b8190555b6040518181527f4509585e9439645e66ff340ceb39cba75148611a4454b107764e9a23a015883f906020015b60405180910390a150565b6107443382610ff9565b6107605760405162461bcd60e51b815260040161063b90611d17565b6106dc838383611057565b60008281526008602090815260408083208151808301909252546001600160a01b038116808352600160a01b9091046001600160601b03169282019290925282916107e05750604080518082019091526007546001600160a01b0381168252600160a01b90046001600160601b031660208201525b6020810151600090612710906107ff906001600160601b031687611d7a565b6108099190611d91565b915196919550909350505050565b61081f610f9f565b60006108336009546001600160a01b031690565b6001600160a01b03164760405160006040518083038185875af1925050503d806000811461087d576040519150601f19603f3d011682016040523d82523d6000602084013e610882565b606091505b505090508061089057600080fd5b50565b6106dc83838360405180602001604052806000815250610cdf565b6000806108bb86866111bb565b90506108c88185856112d6565b90505b949350505050565b6000818152600260205260408120546001600160a01b0316806105085760405162461bcd60e51b8152602060048201526018602482015277115490cdcc8c4e881a5b9d985b1a59081d1bdad95b88125160421b604482015260640161063b565b60006001600160a01b03821661099d5760405162461bcd60e51b815260206004820152602960248201527f4552433732313a2061646472657373207a65726f206973206e6f7420612076616044820152683634b21037bbb732b960b91b606482015260840161063b565b506001600160a01b031660009081526003602052604090205490565b6109c1610f9f565b6109cb60006113e4565b565b606060006109da600a5490565b905060008167ffffffffffffffff8111156109f7576109f76119e3565b604051908082528060200260200182016040528015610a3d57816020015b604080518082019091526000815260606020820152815260200190600190039081610a155790505b50905060005b82811015610b1f576000818152600d602052604081208054610a6490611cdd565b80601f0160208091040260200160405190810160405280929190818152602001828054610a9090611cdd565b8015610add5780601f10610ab257610100808354040283529160200191610add565b820191906000526020600020905b815481529060010190602001808311610ac057829003601f168201915b50505050509050604051806040016040528083815260200182815250838381518110610b0b57610b0b611db3565b602090810291909101015250600101610a43565b5092915050565b60606000610b33600a5490565b90506000610b4084610933565b905060008167ffffffffffffffff811115610b5d57610b5d6119e3565b604051908082528060200260200182016040528015610ba357816020015b604080518082019091526000815260606020820152815260200190600190039081610b7b5790505b5090506000805b84811015610cb657866001600160a01b0316610bc5826108d3565b6001600160a01b031603610cae576000818152600d602052604081208054610bec90611cdd565b80601f0160208091040260200160405190810160405280929190818152602001828054610c1890611cdd565b8015610c655780601f10610c3a57610100808354040283529160200191610c65565b820191906000526020600020905b815481529060010190602001808311610c4857829003601f168201915b50505050509050604051806040016040528083815260200182815250848481518110610c9357610c93611db3565b60200260200101819052508280610ca990611dc9565b935050505b600101610baa565b509095945050505050565b60606001805461051d90611cdd565b610cdb338383611436565b5050565b610ce93383610ff9565b610d055760405162461bcd60e51b815260040161063b90611d17565b610d1184848484611504565b50505050565b6000818152600d60205260409020805460609190610d3490611cdd565b80601f0160208091040260200160405190810160405280929190818152602001828054610d6090611cdd565b8015610dad5780601f10610d8257610100808354040283529160200191610dad565b820191906000526020600020905b815481529060010190602001808311610d9057829003601f168201915b50505050509050919050565b6001600160a01b03918216600090815260056020908152604080832093909416825291909152205460ff1690565b6000610df383836111bb565b9392505050565b610e02610f9f565b600c8190556040518181527f94147837bfb1f8bc1bfce52269b1d1637a22fb5b3119b5ee1b9da66718d0ced09060200161072f565b610e3f610f9f565b6001600160a01b038116610ea45760405162461bcd60e51b815260206004820152602660248201527f4f776e61626c653a206e6577206f776e657220697320746865207a65726f206160448201526564647265737360d01b606482015260840161063b565b610890816113e4565b60006001600160e01b0319821663152a902d60e11b1480610508575061050882611537565b6000818152600260205260409020546001600160a01b03166108905760405162461bcd60e51b8152602060048201526018602482015277115490cdcc8c4e881a5b9d985b1a59081d1bdad95b88125160421b604482015260640161063b565b600081815260046020526040902080546001600160a01b0319166001600160a01b0384169081179091558190610f66826108d3565b6001600160a01b03167f8c5be1e5ebec7d5bd14f71427d1e84f3dd0314c0f7b2291e5b200ac8c7c3b92560405160405180910390a45050565b6009546001600160a01b031633146109cb5760405162461bcd60e51b815260206004820181905260248201527f4f776e61626c653a2063616c6c6572206973206e6f7420746865206f776e6572604482015260640161063b565b600080611005836108d3565b9050806001600160a01b0316846001600160a01b0316148061102c575061102c8185610db9565b806108cb5750836001600160a01b0316611045846105a0565b6001600160a01b031614949350505050565b826001600160a01b031661106a826108d3565b6001600160a01b0316146110905760405162461bcd60e51b815260040161063b90611de2565b6001600160a01b0382166110f25760405162461bcd60e51b8152602060048201526024808201527f4552433732313a207472616e7366657220746f20746865207a65726f206164646044820152637265737360e01b606482015260840161063b565b826001600160a01b0316611105826108d3565b6001600160a01b03161461112b5760405162461bcd60e51b815260040161063b90611de2565b600081815260046020908152604080832080546001600160a01b03199081169091556001600160a01b0387811680865260038552838620805460001901905590871680865283862080546001019055868652600290945282852080549092168417909155905184937fddf252ad1be2c89b69c2b068fc378daa952ba7f163c4a11628f55a4df523b3ef91a4505050565b6000600b546001036111e057604051630bbbcb9160e31b815260040160405180910390fd5b60405163a787c80b60e01b81523360048201527f00000000000000000000000000000000000000000000000000000000000000006001600160a01b03169063a787c80b90602401602060405180830381865afa158015611244573d6000803e3d6000fd5b505050506040513d601f19601f820116820180604052508101906112689190611e27565b61128557604051631b4660f360e31b815260040160405180910390fd5b600c5434146112a75760405163da1e36dd60e01b815260040160405180910390fd5b60006112b2600a5490565b90506112c2600a80546001019055565b6112cc848261155c565b610df38184611576565b6127106001600160601b03821611156113445760405162461bcd60e51b815260206004820152602a60248201527f455243323938313a20726f79616c7479206665652077696c6c206578636565646044820152692073616c65507269636560b01b606482015260840161063b565b6001600160a01b03821661139a5760405162461bcd60e51b815260206004820152601b60248201527f455243323938313a20496e76616c696420706172616d65746572730000000000604482015260640161063b565b6040805180820182526001600160a01b0393841681526001600160601b0392831660208083019182526000968752600890529190942093519051909116600160a01b029116179055565b600980546001600160a01b038381166001600160a01b0319831681179093556040519116919082907f8be0079c531659141344cd1fd0a4f28419497f9722a3daafe3b4186f6b6457e090600090a35050565b816001600160a01b0316836001600160a01b0316036114975760405162461bcd60e51b815260206004820152601960248201527f4552433732313a20617070726f766520746f2063616c6c657200000000000000604482015260640161063b565b6001600160a01b03838116600081815260056020908152604080832094871680845294825291829020805460ff191686151590811790915591519182527f17307eab39ab6107e8899845ad3d59bd9653f200f220920489ca2b5937696c31910160405180910390a3505050565b61150f848484611057565b61151b8484848461158e565b610d115760405162461bcd60e51b815260040161063b90611e44565b60006001600160e01b03198216632483248360e11b148061050857506105088261168c565b610cdb8282604051806020016040528060008152506116dc565b6000828152600d602052604090206106dc8282611ee4565b60006001600160a01b0384163b1561168457604051630a85bd0160e11b81526001600160a01b0385169063150b7a02906115d2903390899088908890600401611fa4565b6020604051808303816000875af192505050801561160d575060408051601f3d908101601f1916820190925261160a91810190611fe1565b60015b61166a573d80801561163b576040519150601f19603f3d011682016040523d82523d6000602084013e611640565b606091505b5080516000036116625760405162461bcd60e51b815260040161063b90611e44565b805181602001fd5b6001600160e01b031916630a85bd0160e11b1490506108cb565b5060016108cb565b60006001600160e01b031982166380ac58cd60e01b14806116bd57506001600160e01b03198216635b5e139f60e01b145b8061050857506301ffc9a760e01b6001600160e01b0319831614610508565b6116e6838361170f565b6116f3600084848461158e565b6106dc5760405162461bcd60e51b815260040161063b90611e44565b6001600160a01b0382166117655760405162461bcd60e51b815260206004820181905260248201527f4552433732313a206d696e7420746f20746865207a65726f2061646472657373604482015260640161063b565b6000818152600260205260409020546001600160a01b0316156117ca5760405162461bcd60e51b815260206004820152601c60248201527f4552433732313a20746f6b656e20616c7265616479206d696e74656400000000604482015260640161063b565b6000818152600260205260409020546001600160a01b03161561182f5760405162461bcd60e51b815260206004820152601c60248201527f4552433732313a20746f6b656e20616c7265616479206d696e74656400000000604482015260640161063b565b6001600160a01b038216600081815260036020908152604080832080546001019055848352600290915280822080546001600160a01b0319168417905551839291907fddf252ad1be2c89b69c2b068fc378daa952ba7f163c4a11628f55a4df523b3ef908290a45050565b6001600160e01b03198116811461089057600080fd5b6000602082840312156118c257600080fd5b8135610df38161189a565b6000815180845260005b818110156118f3576020818501810151868301820152016118d7565b506000602082860101526020601f19601f83011685010191505092915050565b602081526000610df360208301846118cd565b60006020828403121561193857600080fd5b5035919050565b80356001600160a01b038116811461195657600080fd5b919050565b6000806040838503121561196e57600080fd5b6119778361193f565b946020939093013593505050565b60008060006060848603121561199a57600080fd5b6119a38461193f565b92506119b16020850161193f565b9150604084013590509250925092565b600080604083850312156119d457600080fd5b50508035926020909101359150565b634e487b7160e01b600052604160045260246000fd5b600067ffffffffffffffff80841115611a1457611a146119e3565b604051601f8501601f19908116603f01168101908282118183101715611a3c57611a3c6119e3565b81604052809350858152868686011115611a5557600080fd5b858560208301376000602087830101525050509392505050565b600082601f830112611a8057600080fd5b610df3838335602085016119f9565b60008060008060808587031215611aa557600080fd5b611aae8561193f565b9350602085013567ffffffffffffffff811115611aca57600080fd5b611ad687828801611a6f565b935050611ae56040860161193f565b915060608501356001600160601b0381168114611b0157600080fd5b939692955090935050565b600060208284031215611b1e57600080fd5b610df38261193f565b60006020808301818452808551808352604092508286019150828160051b87010184880160005b83811015611b8d57888303603f19018552815180518452870151878401879052611b7a878501826118cd565b9588019593505090860190600101611b4e565b509098975050505050505050565b801515811461089057600080fd5b60008060408385031215611bbc57600080fd5b611bc58361193f565b91506020830135611bd581611b9b565b809150509250929050565b60008060008060808587031215611bf657600080fd5b611bff8561193f565b9350611c0d6020860161193f565b925060408501359150606085013567ffffffffffffffff811115611c3057600080fd5b8501601f81018713611c4157600080fd5b611c50878235602084016119f9565b91505092959194509250565b60008060408385031215611c6f57600080fd5b611c788361193f565b9150611c866020840161193f565b90509250929050565b60008060408385031215611ca257600080fd5b611cab8361193f565b9150602083013567ffffffffffffffff811115611cc757600080fd5b611cd385828601611a6f565b9150509250929050565b600181811c90821680611cf157607f821691505b602082108103611d1157634e487b7160e01b600052602260045260246000fd5b50919050565b6020808252602d908201527f4552433732313a2063616c6c6572206973206e6f7420746f6b656e206f776e6560408201526c1c881bdc88185c1c1c9bdd9959609a1b606082015260800190565b634e487b7160e01b600052601160045260246000fd5b808202811582820484141761050857610508611d64565b600082611dae57634e487b7160e01b600052601260045260246000fd5b500490565b634e487b7160e01b600052603260045260246000fd5b600060018201611ddb57611ddb611d64565b5060010190565b60208082526025908201527f4552433732313a207472616e736665722066726f6d20696e636f72726563742060408201526437bbb732b960d91b606082015260800190565b600060208284031215611e3957600080fd5b8151610df381611b9b565b60208082526032908201527f4552433732313a207472616e7366657220746f206e6f6e20455243373231526560408201527131b2b4bb32b91034b6b83632b6b2b73a32b960711b606082015260800190565b601f8211156106dc57600081815260208120601f850160051c81016020861015611ebd5750805b601f850160051c820191505b81811015611edc57828155600101611ec9565b505050505050565b815167ffffffffffffffff811115611efe57611efe6119e3565b611f1281611f0c8454611cdd565b84611e96565b602080601f831160018114611f475760008415611f2f5750858301515b600019600386901b1c1916600185901b178555611edc565b600085815260208120601f198616915b82811015611f7657888601518255948401946001909101908401611f57565b5085821015611f945787850151600019600388901b60f8161c191681555b5050505050600190811b01905550565b6001600160a01b0385811682528416602082015260408101839052608060608201819052600090611fd7908301846118cd565b9695505050505050565b600060208284031215611ff357600080fd5b8151610df38161189a56fea2646970667358221220c9b8534388e069641032c05dcd0b4b06912e112c921b9ff4ab89c9bb6d7e837364736f6c63430008130033",
  "linkReferences": {},
  "deployedLinkReferences": {}
}