{
  "_format": "hh-sol-artifact-1",
  "contractName": "DGNMCollectors",
  "sourceName": "contracts/DGNMCollectors.sol",
  "abi": [
    {
      "inputs": [],
      "stateMutability": "nonpayable",
      "type": "constructor"
    },
    {
      "inputs": [],
      "name": "DGNM__AlreadyRegistered",
      "type": "error"
    },
    {
      "inputs": [],
      "name": "DGNM__NotTransferable",
      "type": "error"
    },
    {
      "inputs": [],
      "name": "DGNM__OnlyEOA",
      "type": "error"
    },
    {
      "inputs": [
        {
          "internalType": "uint256",
          "name": "tokenId",
          "type": "uint256"
        }
      ],
      "name": "DGNM__OnlyTokenOwner",
      "type": "error"
    },
    {
      "anonymous": false,
      "inputs": [
        {
          "indexed": true,
          "internalType": "address",
          "name": "owner",
          "type": "address"
        },
        {
          "indexed": true,
          "internalType": "address",
          "name": "approved",
          "type": "address"
        },
        {
          "indexed": true,
          "internalType": "uint256",
          "name": "tokenId",
          "type": "uint256"
        }
      ],
      "name": "Approval",
      "type": "event"
    },
    {
      "anonymous": false,
      "inputs": [
        {
          "indexed": true,
          "internalType": "address",
          "name": "owner",
          "type": "address"
        },
        {
          "indexed": true,
          "internalType": "address",
          "name": "operator",
          "type": "address"
        },
        {
          "indexed": false,
          "internalType": "bool",
          "name": "approved",
          "type": "bool"
        }
      ],
      "name": "ApprovalForAll",
      "type": "event"
    },
    {
      "anonymous": false,
      "inputs": [
        {
          "indexed": false,
          "internalType": "uint256",
          "name": "_fromTokenId",
          "type": "uint256"
        },
        {
          "indexed": false,
          "internalType": "uint256",
          "name": "_toTokenId",
          "type": "uint256"
        }
      ],
      "name": "BatchMetadataUpdate",
      "type": "event"
    },
    {
      "anonymous": false,
      "inputs": [
        {
          "indexed": false,
          "internalType": "uint256",
          "name": "tokenId",
          "type": "uint256"
        },
        {
          "indexed": false,
          "internalType": "address",
          "name": "owner",
          "type": "address"
        },
        {
          "indexed": false,
          "internalType": "string",
          "name": "uri",
          "type": "string"
        }
      ],
      "name": "DGNM__ProfileCreated",
      "type": "event"
    },
    {
      "anonymous": false,
      "inputs": [
        {
          "indexed": false,
          "internalType": "uint256",
          "name": "tokenId",
          "type": "uint256"
        }
      ],
      "name": "DGNM__ProfileDeleted",
      "type": "event"
    },
    {
      "anonymous": false,
      "inputs": [
        {
          "indexed": false,
          "internalType": "uint256",
          "name": "tokenId",
          "type": "uint256"
        },
        {
          "indexed": false,
          "internalType": "string",
          "name": "newUri",
          "type": "string"
        }
      ],
      "name": "DGNM__ProfileUpdated",
      "type": "event"
    },
    {
      "anonymous": false,
      "inputs": [
        {
          "indexed": false,
          "internalType": "uint256",
          "name": "_tokenId",
          "type": "uint256"
        }
      ],
      "name": "MetadataUpdate",
      "type": "event"
    },
    {
      "anonymous": false,
      "inputs": [
        {
          "indexed": true,
          "internalType": "address",
          "name": "previousOwner",
          "type": "address"
        },
        {
          "indexed": true,
          "internalType": "address",
          "name": "newOwner",
          "type": "address"
        }
      ],
      "name": "OwnershipTransferred",
      "type": "event"
    },
    {
      "anonymous": false,
      "inputs": [
        {
          "indexed": true,
          "internalType": "address",
          "name": "from",
          "type": "address"
        },
        {
          "indexed": true,
          "internalType": "address",
          "name": "to",
          "type": "address"
        },
        {
          "indexed": true,
          "internalType": "uint256",
          "name": "tokenId",
          "type": "uint256"
        }
      ],
      "name": "Transfer",
      "type": "event"
    },
    {
      "inputs": [
        {
          "internalType": "address",
          "name": "to",
          "type": "address"
        },
        {
          "internalType": "uint256",
          "name": "tokenId",
          "type": "uint256"
        }
      ],
      "name": "approve",
      "outputs": [],
      "stateMutability": "nonpayable",
      "type": "function"
    },
    {
      "inputs": [
        {
          "internalType": "address",
          "name": "owner",
          "type": "address"
        }
      ],
      "name": "balanceOf",
      "outputs": [
        {
          "internalType": "uint256",
          "name": "",
          "type": "uint256"
        }
      ],
      "stateMutability": "view",
      "type": "function"
    },
    {
      "inputs": [
        {
          "internalType": "uint256",
          "name": "tokenId",
          "type": "uint256"
        }
      ],
      "name": "burn",
      "outputs": [],
      "stateMutability": "nonpayable",
      "type": "function"
    },
    {
      "inputs": [
        {
          "internalType": "string",
          "name": "uri",
          "type": "string"
        }
      ],
      "name": "create",
      "outputs": [
        {
          "internalType": "uint256",
          "name": "",
          "type": "uint256"
        }
      ],
      "stateMutability": "nonpayable",
      "type": "function"
    },
    {
      "inputs": [],
      "name": "getAllProfiles",
      "outputs": [
        {
          "components": [
            {
              "internalType": "uint256",
              "name": "id",
              "type": "uint256"
            },
            {
              "internalType": "string",
              "name": "uri",
              "type": "string"
            }
          ],
          "internalType": "struct DGNMCollectors.Profile[]",
          "name": "",
          "type": "tuple[]"
        }
      ],
      "stateMutability": "view",
      "type": "function"
    },
    {
      "inputs": [
        {
          "internalType": "uint256",
          "name": "tokenId",
          "type": "uint256"
        }
      ],
      "name": "getApproved",
      "outputs": [
        {
          "internalType": "address",
          "name": "",
          "type": "address"
        }
      ],
      "stateMutability": "view",
      "type": "function"
    },
    {
      "inputs": [
        {
          "internalType": "address",
          "name": "user",
          "type": "address"
        }
      ],
      "name": "getUserProfile",
      "outputs": [
        {
          "components": [
            {
              "internalType": "uint256",
              "name": "id",
              "type": "uint256"
            },
            {
              "internalType": "string",
              "name": "uri",
              "type": "string"
            }
          ],
          "internalType": "struct DGNMCollectors.Profile",
          "name": "profile",
          "type": "tuple"
        }
      ],
      "stateMutability": "view",
      "type": "function"
    },
    {
      "inputs": [
        {
          "internalType": "address",
          "name": "user",
          "type": "address"
        }
      ],
      "name": "hasProfile",
      "outputs": [
        {
          "internalType": "bool",
          "name": "",
          "type": "bool"
        }
      ],
      "stateMutability": "view",
      "type": "function"
    },
    {
      "inputs": [
        {
          "internalType": "address",
          "name": "owner",
          "type": "address"
        },
        {
          "internalType": "address",
          "name": "operator",
          "type": "address"
        }
      ],
      "name": "isApprovedForAll",
      "outputs": [
        {
          "internalType": "bool",
          "name": "",
          "type": "bool"
        }
      ],
      "stateMutability": "view",
      "type": "function"
    },
    {
      "inputs": [],
      "name": "name",
      "outputs": [
        {
          "internalType": "string",
          "name": "",
          "type": "string"
        }
      ],
      "stateMutability": "view",
      "type": "function"
    },
    {
      "inputs": [],
      "name": "owner",
      "outputs": [
        {
          "internalType": "address",
          "name": "",
          "type": "address"
        }
      ],
      "stateMutability": "view",
      "type": "function"
    },
    {
      "inputs": [
        {
          "internalType": "uint256",
          "name": "tokenId",
          "type": "uint256"
        }
      ],
      "name": "ownerOf",
      "outputs": [
        {
          "internalType": "address",
          "name": "",
          "type": "address"
        }
      ],
      "stateMutability": "view",
      "type": "function"
    },
    {
      "inputs": [],
      "name": "renounceOwnership",
      "outputs": [],
      "stateMutability": "nonpayable",
      "type": "function"
    },
    {
      "inputs": [
        {
          "internalType": "address",
          "name": "from",
          "type": "address"
        },
        {
          "internalType": "address",
          "name": "to",
          "type": "address"
        },
        {
          "internalType": "uint256",
          "name": "tokenId",
          "type": "uint256"
        }
      ],
      "name": "safeTransferFrom",
      "outputs": [],
      "stateMutability": "nonpayable",
      "type": "function"
    },
    {
      "inputs": [
        {
          "internalType": "address",
          "name": "from",
          "type": "address"
        },
        {
          "internalType": "address",
          "name": "to",
          "type": "address"
        },
        {
          "internalType": "uint256",
          "name": "tokenId",
          "type": "uint256"
        },
        {
          "internalType": "bytes",
          "name": "data",
          "type": "bytes"
        }
      ],
      "name": "safeTransferFrom",
      "outputs": [],
      "stateMutability": "nonpayable",
      "type": "function"
    },
    {
      "inputs": [
        {
          "internalType": "address",
          "name": "operator",
          "type": "address"
        },
        {
          "internalType": "bool",
          "name": "approved",
          "type": "bool"
        }
      ],
      "name": "setApprovalForAll",
      "outputs": [],
      "stateMutability": "nonpayable",
      "type": "function"
    },
    {
      "inputs": [
        {
          "internalType": "bytes4",
          "name": "interfaceId",
          "type": "bytes4"
        }
      ],
      "name": "supportsInterface",
      "outputs": [
        {
          "internalType": "bool",
          "name": "",
          "type": "bool"
        }
      ],
      "stateMutability": "view",
      "type": "function"
    },
    {
      "inputs": [],
      "name": "symbol",
      "outputs": [
        {
          "internalType": "string",
          "name": "",
          "type": "string"
        }
      ],
      "stateMutability": "view",
      "type": "function"
    },
    {
      "inputs": [
        {
          "internalType": "uint256",
          "name": "tokenId",
          "type": "uint256"
        }
      ],
      "name": "tokenURI",
      "outputs": [
        {
          "internalType": "string",
          "name": "",
          "type": "string"
        }
      ],
      "stateMutability": "view",
      "type": "function"
    },
    {
      "inputs": [
        {
          "internalType": "address",
          "name": "from",
          "type": "address"
        },
        {
          "internalType": "address",
          "name": "to",
          "type": "address"
        },
        {
          "internalType": "uint256",
          "name": "tokenId",
          "type": "uint256"
        }
      ],
      "name": "transferFrom",
      "outputs": [],
      "stateMutability": "nonpayable",
      "type": "function"
    },
    {
      "inputs": [
        {
          "internalType": "address",
          "name": "newOwner",
          "type": "address"
        }
      ],
      "name": "transferOwnership",
      "outputs": [],
      "stateMutability": "nonpayable",
      "type": "function"
    },
    {
      "inputs": [
        {
          "internalType": "uint256",
          "name": "tokenId",
          "type": "uint256"
        },
        {
          "internalType": "string",
          "name": "newUri",
          "type": "string"
        }
      ],
      "name": "update",
      "outputs": [],
      "stateMutability": "nonpayable",
      "type": "function"
    }
  ],
  "bytecode": "0x60806040523480156200001157600080fd5b506040518060400160405280601881526020017f44474e4d20436f6c6c6563746f72732050726f66696c65730000000000000000815250604051806040016040528060048152602001630444743560e41b8152508160009081620000769190620001a3565b506001620000858282620001a3565b505050620000a26200009c620000a860201b60201c565b620000ac565b6200026f565b3390565b600780546001600160a01b038381166001600160a01b0319831681179093556040519116919082907f8be0079c531659141344cd1fd0a4f28419497f9722a3daafe3b4186f6b6457e090600090a35050565b634e487b7160e01b600052604160045260246000fd5b600181811c908216806200012957607f821691505b6020821081036200014a57634e487b7160e01b600052602260045260246000fd5b50919050565b601f8211156200019e57600081815260208120601f850160051c81016020861015620001795750805b601f850160051c820191505b818110156200019a5782815560010162000185565b5050505b505050565b81516001600160401b03811115620001bf57620001bf620000fe565b620001d781620001d0845462000114565b8462000150565b602080601f8311600181146200020f5760008415620001f65750858301515b600019600386901b1c1916600185901b1785556200019a565b600085815260208120601f198616915b8281101562000240578886015182559484019460019091019084016200021f565b50858210156200025f5787850151600019600388901b60f8161c191681555b5050505050600190811b01905550565b611a72806200027f6000396000f3fe608060405234801561001057600080fd5b50600436106101425760003560e01c80638da5cb5b116100b8578063b6a46b3b1161007c578063b6a46b3b146102ad578063b88d4fde146102c0578063c87b56dd146102d3578063e985e9c5146102e6578063f2fde38b14610322578063f745630f1461033557600080fd5b80638da5cb5b1461024e57806395d89b411461025f578063987ee15614610267578063a22cb46514610287578063a787c80b1461029a57600080fd5b806323b872dd1161010a57806323b872dd146101d957806342842e0e146101ec57806342966c68146101ff5780636352211e1461021257806370a0823114610225578063715018a61461024657600080fd5b806301ffc9a71461014757806306fdde031461016f578063081812fc14610184578063095ea7b3146101af5780630b1fe784146101c4575b600080fd5b61015a6101553660046113c4565b610348565b60405190151581526020015b60405180910390f35b610177610359565b604051610166919061142e565b610197610192366004611441565b6103eb565b6040516001600160a01b039091168152602001610166565b6101c26101bd366004611471565b610412565b005b6101cc61052c565b60405161016691906114ba565b6101c26101e736600461151c565b610685565b6101c26101fa36600461151c565b6106b6565b6101c261020d366004611441565b6106d1565b610197610220366004611441565b61074d565b610238610233366004611558565b6107ad565b604051908152602001610166565b6101c2610833565b6007546001600160a01b0316610197565b610177610847565b61027a610275366004611558565b610856565b6040516101669190611573565b6101c2610295366004611586565b610978565b61015a6102a8366004611558565b610987565b6102386102bb36600461166e565b61099a565b6101c26102ce3660046116a3565b610a33565b6101776102e1366004611441565b610a6b565b61015a6102f436600461171f565b6001600160a01b03918216600090815260056020908152604080832093909416825291909152205460ff1690565b6101c2610330366004611558565b610b0d565b6101c2610343366004611752565b610b86565b600061035382610c0a565b92915050565b60606000805461036890611799565b80601f016020809104026020016040519081016040528092919081815260200182805461039490611799565b80156103e15780601f106103b6576101008083540402835291602001916103e1565b820191906000526020600020905b8154815290600101906020018083116103c457829003601f168201915b5050505050905090565b60006103f682610c2f565b506000908152600460205260409020546001600160a01b031690565b600061041d8261074d565b9050806001600160a01b0316836001600160a01b03160361048f5760405162461bcd60e51b815260206004820152602160248201527f4552433732313a20617070726f76616c20746f2063757272656e74206f776e656044820152603960f91b60648201526084015b60405180910390fd5b336001600160a01b03821614806104ab57506104ab81336102f4565b61051d5760405162461bcd60e51b815260206004820152603d60248201527f4552433732313a20617070726f76652063616c6c6572206973206e6f7420746f60448201527f6b656e206f776e6572206f7220617070726f76656420666f7220616c6c0000006064820152608401610486565b6105278383610c8e565b505050565b6060600061053960085490565b905060008167ffffffffffffffff811115610556576105566115c2565b60405190808252806020026020018201604052801561059c57816020015b6040805180820190915260008152606060208201528152602001906001900390816105745790505b50905060005b8281101561067e57600081815260096020526040812080546105c390611799565b80601f01602080910402602001604051908101604052809291908181526020018280546105ef90611799565b801561063c5780601f106106115761010080835404028352916020019161063c565b820191906000526020600020905b81548152906001019060200180831161061f57829003601f168201915b5050505050905060405180604001604052808381526020018281525083838151811061066a5761066a6117d3565b6020908102919091010152506001016105a2565b5092915050565b61068f3382610cfc565b6106ab5760405162461bcd60e51b8152600401610486906117e9565b610527838383610d7b565b61052783838360405180602001604052806000815250610a33565b6106da8161074d565b6001600160a01b0316336001600160a01b03161461070e576040516387f7faf360e01b815260048101829052602401610486565b61071781610d94565b6040518181527f4b27806ed7c35468f13efbd279da1c95e01e4f79f0ee48e9c0e85c74a053dd159060200160405180910390a150565b6000818152600260205260408120546001600160a01b0316806103535760405162461bcd60e51b8152602060048201526018602482015277115490cdcc8c4e881a5b9d985b1a59081d1bdad95b88125160421b6044820152606401610486565b60006001600160a01b0382166108175760405162461bcd60e51b815260206004820152602960248201527f4552433732313a2061646472657373207a65726f206973206e6f7420612076616044820152683634b21037bbb732b960b91b6064820152608401610486565b506001600160a01b031660009081526003602052604090205490565b61083b610d9d565b6108456000610df7565b565b60606001805461036890611799565b60408051808201909152600081526060602082015261087482610987565b1561097357600061088460085490565b905060005b8181101561097057836001600160a01b03166108a48261074d565b6001600160a01b03160361096857600081815260096020526040812080546108cb90611799565b80601f01602080910402602001604051908101604052809291908181526020018280546108f790611799565b80156109445780601f1061091957610100808354040283529160200191610944565b820191906000526020600020905b81548152906001019060200180831161092757829003601f168201915b50505050509050604051806040016040528083815260200182815250935050610970565b600101610889565b50505b919050565b610983338383610e49565b5050565b6000610992826107ad565b151592915050565b60006109a533610987565b156109c357604051632ed28b6960e01b815260040160405180910390fd5b60006109ce60085490565b90506109de600880546001019055565b6109e83382610f17565b6109f28184610f31565b7f46283caeba60ba770455dd780b86b2a5f93426edbe10af1eeb1bf260b1a8f2aa813385604051610a2593929190611836565b60405180910390a192915050565b610a3d3383610cfc565b610a595760405162461bcd60e51b8152600401610486906117e9565b610a6584848484610f49565b50505050565b6000818152600960205260409020805460609190610a8890611799565b80601f0160208091040260200160405190810160405280929190818152602001828054610ab490611799565b8015610b015780601f10610ad657610100808354040283529160200191610b01565b820191906000526020600020905b815481529060010190602001808311610ae457829003601f168201915b50505050509050919050565b610b15610d9d565b6001600160a01b038116610b7a5760405162461bcd60e51b815260206004820152602660248201527f4f776e61626c653a206e6577206f776e657220697320746865207a65726f206160448201526564647265737360d01b6064820152608401610486565b610b8381610df7565b50565b610b8f8261074d565b6001600160a01b0316336001600160a01b031614610bc3576040516387f7faf360e01b815260048101839052602401610486565b610bcd8282610f31565b7fa4a8f509cb03e35d2862008e4364b7a651ad8596ecef6ebdaf522fada3acbb288282604051610bfe929190611869565b60405180910390a15050565b60006001600160e01b03198216632483248360e11b1480610353575061035382610f7c565b6000818152600260205260409020546001600160a01b0316610b835760405162461bcd60e51b8152602060048201526018602482015277115490cdcc8c4e881a5b9d985b1a59081d1bdad95b88125160421b6044820152606401610486565b600081815260046020526040902080546001600160a01b0319166001600160a01b0384169081179091558190610cc38261074d565b6001600160a01b03167f8c5be1e5ebec7d5bd14f71427d1e84f3dd0314c0f7b2291e5b200ac8c7c3b92560405160405180910390a45050565b600080610d088361074d565b9050806001600160a01b0316846001600160a01b03161480610d4f57506001600160a01b0380821660009081526005602090815260408083209388168352929052205460ff165b80610d735750836001600160a01b0316610d68846103eb565b6001600160a01b0316145b949350505050565b604051634f07e1eb60e11b815260040160405180910390fd5b610b8381610fcc565b6007546001600160a01b031633146108455760405162461bcd60e51b815260206004820181905260248201527f4f776e61626c653a2063616c6c6572206973206e6f7420746865206f776e65726044820152606401610486565b600780546001600160a01b038381166001600160a01b0319831681179093556040519116919082907f8be0079c531659141344cd1fd0a4f28419497f9722a3daafe3b4186f6b6457e090600090a35050565b816001600160a01b0316836001600160a01b031603610eaa5760405162461bcd60e51b815260206004820152601960248201527f4552433732313a20617070726f766520746f2063616c6c6572000000000000006044820152606401610486565b6001600160a01b03838116600081815260056020908152604080832094871680845294825291829020805460ff191686151590811790915591519182527f17307eab39ab6107e8899845ad3d59bd9653f200f220920489ca2b5937696c31910160405180910390a3505050565b61098382826040518060200160405280600081525061100c565b600082815260096020526040902061052782826118d0565b610f54848484610d7b565b610f608484848461103f565b610a655760405162461bcd60e51b815260040161048690611990565b60006001600160e01b031982166380ac58cd60e01b1480610fad57506001600160e01b03198216635b5e139f60e01b145b8061035357506301ffc9a760e01b6001600160e01b0319831614610353565b610fd581611140565b60008181526006602052604090208054610fee90611799565b159050610b83576000818152600660205260408120610b8391611360565b61101683836111d5565b611023600084848461103f565b6105275760405162461bcd60e51b815260040161048690611990565b60006001600160a01b0384163b1561113557604051630a85bd0160e11b81526001600160a01b0385169063150b7a02906110839033908990889088906004016119e2565b6020604051808303816000875af19250505080156110be575060408051601f3d908101601f191682019092526110bb91810190611a1f565b60015b61111b573d8080156110ec576040519150601f19603f3d011682016040523d82523d6000602084013e6110f1565b606091505b5080516000036111135760405162461bcd60e51b815260040161048690611990565b805181602001fd5b6001600160e01b031916630a85bd0160e11b149050610d73565b506001949350505050565b600061114b8261074d565b90506111568261074d565b600083815260046020908152604080832080546001600160a01b03199081169091556001600160a01b0385168085526003845282852080546000190190558785526002909352818420805490911690555192935084927fddf252ad1be2c89b69c2b068fc378daa952ba7f163c4a11628f55a4df523b3ef908390a45050565b6001600160a01b03821661122b5760405162461bcd60e51b815260206004820181905260248201527f4552433732313a206d696e7420746f20746865207a65726f20616464726573736044820152606401610486565b6000818152600260205260409020546001600160a01b0316156112905760405162461bcd60e51b815260206004820152601c60248201527f4552433732313a20746f6b656e20616c7265616479206d696e746564000000006044820152606401610486565b6000818152600260205260409020546001600160a01b0316156112f55760405162461bcd60e51b815260206004820152601c60248201527f4552433732313a20746f6b656e20616c7265616479206d696e746564000000006044820152606401610486565b6001600160a01b038216600081815260036020908152604080832080546001019055848352600290915280822080546001600160a01b0319168417905551839291907fddf252ad1be2c89b69c2b068fc378daa952ba7f163c4a11628f55a4df523b3ef908290a45050565b50805461136c90611799565b6000825580601f1061137c575050565b601f016020900490600052602060002090810190610b8391905b808211156113aa5760008155600101611396565b5090565b6001600160e01b031981168114610b8357600080fd5b6000602082840312156113d657600080fd5b81356113e1816113ae565b9392505050565b6000815180845260005b8181101561140e576020818501810151868301820152016113f2565b506000602082860101526020601f19601f83011685010191505092915050565b6020815260006113e160208301846113e8565b60006020828403121561145357600080fd5b5035919050565b80356001600160a01b038116811461097357600080fd5b6000806040838503121561148457600080fd5b61148d8361145a565b946020939093013593505050565b805182526000602082015160406020850152610d7360408501826113e8565b6000602080830181845280855180835260408601915060408160051b870101925083870160005b8281101561150f57603f198886030184526114fd85835161149b565b945092850192908501906001016114e1565b5092979650505050505050565b60008060006060848603121561153157600080fd5b61153a8461145a565b92506115486020850161145a565b9150604084013590509250925092565b60006020828403121561156a57600080fd5b6113e18261145a565b6020815260006113e1602083018461149b565b6000806040838503121561159957600080fd5b6115a28361145a565b9150602083013580151581146115b757600080fd5b809150509250929050565b634e487b7160e01b600052604160045260246000fd5b600067ffffffffffffffff808411156115f3576115f36115c2565b604051601f8501601f19908116603f0116810190828211818310171561161b5761161b6115c2565b8160405280935085815286868601111561163457600080fd5b858560208301376000602087830101525050509392505050565b600082601f83011261165f57600080fd5b6113e1838335602085016115d8565b60006020828403121561168057600080fd5b813567ffffffffffffffff81111561169757600080fd5b610d738482850161164e565b600080600080608085870312156116b957600080fd5b6116c28561145a565b93506116d06020860161145a565b925060408501359150606085013567ffffffffffffffff8111156116f357600080fd5b8501601f8101871361170457600080fd5b611713878235602084016115d8565b91505092959194509250565b6000806040838503121561173257600080fd5b61173b8361145a565b91506117496020840161145a565b90509250929050565b6000806040838503121561176557600080fd5b82359150602083013567ffffffffffffffff81111561178357600080fd5b61178f8582860161164e565b9150509250929050565b600181811c908216806117ad57607f821691505b6020821081036117cd57634e487b7160e01b600052602260045260246000fd5b50919050565b634e487b7160e01b600052603260045260246000fd5b6020808252602d908201527f4552433732313a2063616c6c6572206973206e6f7420746f6b656e206f776e6560408201526c1c881bdc88185c1c1c9bdd9959609a1b606082015260800190565b8381526001600160a01b0383166020820152606060408201819052600090611860908301846113e8565b95945050505050565b828152604060208201526000610d7360408301846113e8565b601f82111561052757600081815260208120601f850160051c810160208610156118a95750805b601f850160051c820191505b818110156118c8578281556001016118b5565b505050505050565b815167ffffffffffffffff8111156118ea576118ea6115c2565b6118fe816118f88454611799565b84611882565b602080601f831160018114611933576000841561191b5750858301515b600019600386901b1c1916600185901b1785556118c8565b600085815260208120601f198616915b8281101561196257888601518255948401946001909101908401611943565b50858210156119805787850151600019600388901b60f8161c191681555b5050505050600190811b01905550565b60208082526032908201527f4552433732313a207472616e7366657220746f206e6f6e20455243373231526560408201527131b2b4bb32b91034b6b83632b6b2b73a32b960711b606082015260800190565b6001600160a01b0385811682528416602082015260408101839052608060608201819052600090611a15908301846113e8565b9695505050505050565b600060208284031215611a3157600080fd5b81516113e1816113ae56fea26469706673582212206b7157b3223a24a957efce09a484bbb0727161dfe4f6e3cede271a5ef549546e64736f6c63430008130033",
  "linkReferences": {},
  "deployedLinkReferences": {}
}